{
  "contractName": "Cashless",
  "abi": [
    {
      "anonymous": false,
      "inputs": [
        {
          "indexed": false,
          "internalType": "uint256",
          "name": "billId",
          "type": "uint256"
        },
        {
          "indexed": false,
          "internalType": "uint256",
          "name": "patientId",
          "type": "uint256"
        },
        {
          "indexed": false,
          "internalType": "uint256",
          "name": "amount",
          "type": "uint256"
        }
      ],
      "name": "BillGenerated",
      "type": "event"
    },
    {
      "anonymous": false,
      "inputs": [
        {
          "indexed": false,
          "internalType": "uint256",
          "name": "hospitalId",
          "type": "uint256"
        },
        {
          "indexed": false,
          "internalType": "address",
          "name": "hospitalAddress",
          "type": "address"
        }
      ],
      "name": "HospitalRegistered",
      "type": "event"
    },
    {
      "anonymous": false,
      "inputs": [
        {
          "indexed": false,
          "internalType": "uint256",
          "name": "patientId",
          "type": "uint256"
        },
        {
          "indexed": false,
          "internalType": "address",
          "name": "insuranceCompany",
          "type": "address"
        }
      ],
      "name": "InsuranceCompanyAssigned",
      "type": "event"
    },
    {
      "anonymous": false,
      "inputs": [
        {
          "indexed": false,
          "internalType": "uint256",
          "name": "insuranceCompanyId",
          "type": "uint256"
        },
        {
          "indexed": false,
          "internalType": "uint256[]",
          "name": "networkHospitals",
          "type": "uint256[]"
        }
      ],
      "name": "InsuranceCompanyRegistered",
      "type": "event"
    },
    {
      "anonymous": false,
      "inputs": [
        {
          "indexed": false,
          "internalType": "uint256",
          "name": "patientId",
          "type": "uint256"
        },
        {
          "indexed": false,
          "internalType": "string",
          "name": "name",
          "type": "string"
        }
      ],
      "name": "PatientRegistered",
      "type": "event"
    },
    {
      "anonymous": false,
      "inputs": [
        {
          "indexed": false,
          "internalType": "uint256",
          "name": "policyId",
          "type": "uint256"
        },
        {
          "indexed": false,
          "internalType": "string",
          "name": "description",
          "type": "string"
        }
      ],
      "name": "PolicyCreated",
      "type": "event"
    },
    {
      "anonymous": false,
      "inputs": [
        {
          "indexed": false,
          "internalType": "uint256",
          "name": "preauthorizationId",
          "type": "uint256"
        }
      ],
      "name": "PreauthorizationApproved",
      "type": "event"
    },
    {
      "anonymous": false,
      "inputs": [
        {
          "indexed": false,
          "internalType": "uint256",
          "name": "preauthorizationId",
          "type": "uint256"
        }
      ],
      "name": "PreauthorizationRejected",
      "type": "event"
    },
    {
      "anonymous": false,
      "inputs": [
        {
          "indexed": false,
          "internalType": "uint256",
          "name": "preauthorizationId",
          "type": "uint256"
        },
        {
          "indexed": false,
          "internalType": "uint256",
          "name": "patientId",
          "type": "uint256"
        },
        {
          "indexed": false,
          "internalType": "uint256",
          "name": "policyId",
          "type": "uint256"
        },
        {
          "indexed": false,
          "internalType": "uint256",
          "name": "isCashless",
          "type": "uint256"
        }
      ],
      "name": "PreauthorizationRequested",
      "type": "event"
    },
    {
      "inputs": [
        {
          "internalType": "uint256",
          "name": "_patientId",
          "type": "uint256"
        },
        {
          "internalType": "uint256",
          "name": "billId",
          "type": "uint256"
        },
        {
          "internalType": "address",
          "name": "_insuranceCompany",
          "type": "address"
        }
      ],
      "name": "assignInsuranceCompanyForMedicalBill",
      "outputs": [],
      "stateMutability": "nonpayable",
      "type": "function"
    },
    {
      "inputs": [
        {
          "internalType": "uint256",
          "name": "_patientId",
          "type": "uint256"
        },
        {
          "internalType": "address",
          "name": "_insuranceCompany",
          "type": "address"
        },
        {
          "internalType": "uint256",
          "name": "_policyId",
          "type": "uint256"
        }
      ],
      "name": "assignInsurancePolicy",
      "outputs": [],
      "stateMutability": "nonpayable",
      "type": "function"
    },
    {
      "inputs": [
        {
          "internalType": "uint256",
          "name": "",
          "type": "uint256"
        }
      ],
      "name": "billCounters",
      "outputs": [
        {
          "internalType": "uint256",
          "name": "",
          "type": "uint256"
        }
      ],
      "stateMutability": "view",
      "type": "function"
    },
    {
      "inputs": [
        {
          "internalType": "uint256",
          "name": "_patientId",
          "type": "uint256"
        },
        {
          "internalType": "string",
          "name": "_details",
          "type": "string"
        },
        {
          "internalType": "uint256",
          "name": "_amount",
          "type": "uint256"
        },
        {
          "internalType": "uint256",
          "name": "_hospitalId",
          "type": "uint256"
        }
      ],
      "name": "createMedicalBill",
      "outputs": [],
      "stateMutability": "nonpayable",
      "type": "function"
    },
    {
      "inputs": [
        {
          "internalType": "string",
          "name": "_description",
          "type": "string"
        },
        {
          "internalType": "address",
          "name": "_insuranceCompany",
          "type": "address"
        },
        {
          "internalType": "bool",
          "name": "_isPolicyCashless",
          "type": "bool"
        },
        {
          "internalType": "bool",
          "name": "_isPolicyReimbursement",
          "type": "bool"
        },
        {
          "internalType": "uint256",
          "name": "_sumAssured",
          "type": "uint256"
        },
        {
          "components": [
            {
              "internalType": "uint256",
              "name": "annual",
              "type": "uint256"
            },
            {
              "internalType": "uint256",
              "name": "perInstance",
              "type": "uint256"
            }
          ],
          "internalType": "struct MainStructure.Deductible",
          "name": "_deductible",
          "type": "tuple"
        },
        {
          "components": [
            {
              "internalType": "uint256",
              "name": "fixedCharge",
              "type": "uint256"
            },
            {
              "internalType": "uint256",
              "name": "percentageCharge",
              "type": "uint256"
            }
          ],
          "internalType": "struct MainStructure.Copayment",
          "name": "_copayment",
          "type": "tuple"
        },
        {
          "components": [
            {
              "internalType": "bool",
              "name": "facelift",
              "type": "bool"
            },
            {
              "internalType": "bool",
              "name": "hairTransplant",
              "type": "bool"
            },
            {
              "internalType": "bool",
              "name": "alternativeTherapy",
              "type": "bool"
            }
          ],
          "internalType": "struct MainStructure.NoncoveredExpense",
          "name": "_noncoveredExpense",
          "type": "tuple"
        },
        {
          "components": [
            {
              "internalType": "uint256",
              "name": "roomRentLimit",
              "type": "uint256"
            },
            {
              "internalType": "uint256",
              "name": "surgeryLimit",
              "type": "uint256"
            }
          ],
          "internalType": "struct MainStructure.Sublimit",
          "name": "_sublimit",
          "type": "tuple"
        }
      ],
      "name": "createPolicy",
      "outputs": [],
      "stateMutability": "nonpayable",
      "type": "function"
    },
    {
      "inputs": [
        {
          "internalType": "uint256",
          "name": "_patientId",
          "type": "uint256"
        }
      ],
      "name": "getAllMedicalBillByPatientId",
      "outputs": [
        {
          "components": [
            {
              "internalType": "uint256",
              "name": "billId",
              "type": "uint256"
            },
            {
              "internalType": "uint256",
              "name": "patientId",
              "type": "uint256"
            },
            {
              "internalType": "address",
              "name": "assignedInsuranceCompany",
              "type": "address"
            },
            {
              "internalType": "string",
              "name": "details",
              "type": "string"
            },
            {
              "internalType": "uint256",
              "name": "timestamp",
              "type": "uint256"
            },
            {
              "internalType": "uint256",
              "name": "treatmentDate",
              "type": "uint256"
            },
            {
              "internalType": "uint256",
              "name": "amount",
              "type": "uint256"
            }
          ],
          "internalType": "struct MainStructure.MedicalBill[]",
          "name": "",
          "type": "tuple[]"
        }
      ],
      "stateMutability": "view",
      "type": "function"
    },
    {
      "inputs": [
        {
          "internalType": "uint256",
          "name": "_hospitalId",
          "type": "uint256"
        }
      ],
      "name": "getAllPatientsByHospital",
      "outputs": [
        {
          "components": [
            {
              "internalType": "uint256",
              "name": "patientId",
              "type": "uint256"
            },
            {
              "internalType": "string",
              "name": "name",
              "type": "string"
            },
            {
              "internalType": "uint256",
              "name": "age",
              "type": "uint256"
            },
            {
              "internalType": "string",
              "name": "otherDetails",
              "type": "string"
            },
            {
              "internalType": "address",
              "name": "patientAddress",
              "type": "address"
            },
            {
              "internalType": "uint256",
              "name": "hospitalId",
              "type": "uint256"
            },
            {
              "internalType": "uint256[]",
              "name": "billIds",
              "type": "uint256[]"
            }
          ],
          "internalType": "struct MainStructure.Patient[]",
          "name": "",
          "type": "tuple[]"
        }
      ],
      "stateMutability": "view",
      "type": "function"
    },
    {
      "inputs": [
        {
          "internalType": "address",
          "name": "_insuranceCompanyAddress",
          "type": "address"
        }
      ],
      "name": "getPoliciesByInsuranceCompany",
      "outputs": [
        {
          "components": [
            {
              "internalType": "uint256",
              "name": "policyId",
              "type": "uint256"
            },
            {
              "internalType": "string",
              "name": "description",
              "type": "string"
            },
            {
              "internalType": "address",
              "name": "insuranceCompany",
              "type": "address"
            },
            {
              "internalType": "enum MainStructure.PolicyType",
              "name": "policyType",
              "type": "uint8"
            },
            {
              "internalType": "uint256",
              "name": "sumAssured",
              "type": "uint256"
            },
            {
              "components": [
                {
                  "internalType": "uint256",
                  "name": "annual",
                  "type": "uint256"
                },
                {
                  "internalType": "uint256",
                  "name": "perInstance",
                  "type": "uint256"
                }
              ],
              "internalType": "struct MainStructure.Deductible",
              "name": "deductible",
              "type": "tuple"
            },
            {
              "components": [
                {
                  "internalType": "uint256",
                  "name": "fixedCharge",
                  "type": "uint256"
                },
                {
                  "internalType": "uint256",
                  "name": "percentageCharge",
                  "type": "uint256"
                }
              ],
              "internalType": "struct MainStructure.Copayment",
              "name": "copayment",
              "type": "tuple"
            },
            {
              "components": [
                {
                  "internalType": "bool",
                  "name": "facelift",
                  "type": "bool"
                },
                {
                  "internalType": "bool",
                  "name": "hairTransplant",
                  "type": "bool"
                },
                {
                  "internalType": "bool",
                  "name": "alternativeTherapy",
                  "type": "bool"
                }
              ],
              "internalType": "struct MainStructure.NoncoveredExpense",
              "name": "noncoveredExpense",
              "type": "tuple"
            },
            {
              "components": [
                {
                  "internalType": "uint256",
                  "name": "roomRentLimit",
                  "type": "uint256"
                },
                {
                  "internalType": "uint256",
                  "name": "surgeryLimit",
                  "type": "uint256"
                }
              ],
              "internalType": "struct MainStructure.Sublimit",
              "name": "sublimit",
              "type": "tuple"
            }
          ],
          "internalType": "struct MainStructure.Policy[]",
          "name": "",
          "type": "tuple[]"
        }
      ],
      "stateMutability": "view",
      "type": "function"
    },
    {
      "inputs": [
        {
          "internalType": "uint256",
          "name": "_patientId",
          "type": "uint256"
        },
        {
          "internalType": "uint256",
          "name": "_billId",
          "type": "uint256"
        }
      ],
      "name": "getSingleMedicalBill",
      "outputs": [
        {
          "components": [
            {
              "internalType": "uint256",
              "name": "billId",
              "type": "uint256"
            },
            {
              "internalType": "uint256",
              "name": "patientId",
              "type": "uint256"
            },
            {
              "internalType": "address",
              "name": "assignedInsuranceCompany",
              "type": "address"
            },
            {
              "internalType": "string",
              "name": "details",
              "type": "string"
            },
            {
              "internalType": "uint256",
              "name": "timestamp",
              "type": "uint256"
            },
            {
              "internalType": "uint256",
              "name": "treatmentDate",
              "type": "uint256"
            },
            {
              "internalType": "uint256",
              "name": "amount",
              "type": "uint256"
            }
          ],
          "internalType": "struct MainStructure.MedicalBill",
          "name": "",
          "type": "tuple"
        }
      ],
      "stateMutability": "view",
      "type": "function"
    },
    {
      "inputs": [],
      "name": "hospitalCount",
      "outputs": [
        {
          "internalType": "uint256",
          "name": "",
          "type": "uint256"
        }
      ],
      "stateMutability": "view",
      "type": "function"
    },
    {
      "inputs": [],
      "name": "insuranceCompanyCount",
      "outputs": [
        {
          "internalType": "uint256",
          "name": "",
          "type": "uint256"
        }
      ],
      "stateMutability": "view",
      "type": "function"
    },
    {
      "inputs": [],
      "name": "patientCount",
      "outputs": [
        {
          "internalType": "uint256",
          "name": "",
          "type": "uint256"
        }
      ],
      "stateMutability": "view",
      "type": "function"
    },
    {
      "inputs": [],
      "name": "policyCount",
      "outputs": [
        {
          "internalType": "uint256",
          "name": "",
          "type": "uint256"
        }
      ],
      "stateMutability": "view",
      "type": "function"
    },
    {
      "inputs": [],
      "name": "preauthorizationCount",
      "outputs": [
        {
          "internalType": "uint256",
          "name": "",
          "type": "uint256"
        }
      ],
      "stateMutability": "view",
      "type": "function"
    },
    {
      "inputs": [
        {
          "internalType": "string",
          "name": "_hospitalName",
          "type": "string"
        },
        {
          "internalType": "string[]",
          "name": "_doctorList",
          "type": "string[]"
        }
      ],
      "name": "registerHospital",
      "outputs": [],
      "stateMutability": "nonpayable",
      "type": "function"
    },
    {
      "inputs": [
        {
          "internalType": "uint256[]",
          "name": "_networkHospitals",
          "type": "uint256[]"
        },
        {
          "internalType": "string",
          "name": "_details",
          "type": "string"
        }
      ],
      "name": "registerInsuranceCompany",
      "outputs": [],
      "stateMutability": "nonpayable",
      "type": "function"
    },
    {
      "inputs": [
        {
          "internalType": "uint256",
          "name": "_hospitalId",
          "type": "uint256"
        },
        {
          "internalType": "string",
          "name": "_name",
          "type": "string"
        },
        {
          "internalType": "uint256",
          "name": "_age",
          "type": "uint256"
        },
        {
          "internalType": "string",
          "name": "_otherDetails",
          "type": "string"
        },
        {
          "internalType": "address",
          "name": "_patientAddress",
          "type": "address"
        }
      ],
      "name": "registerPatient",
      "outputs": [],
      "stateMutability": "nonpayable",
      "type": "function"
    },
    {
      "inputs": [
        {
          "internalType": "uint256",
          "name": "_patientId",
          "type": "uint256"
        },
        {
          "internalType": "uint256",
          "name": "_billId",
          "type": "uint256"
        }
      ],
      "name": "requestPreauthorization",
      "outputs": [],
      "stateMutability": "nonpayable",
      "type": "function"
    },
    {
      "inputs": [
        {
          "internalType": "uint256",
          "name": "_preauthorizationId",
          "type": "uint256"
        }
      ],
      "name": "approvePreauthorization",
      "outputs": [],
      "stateMutability": "nonpayable",
      "type": "function"
    },
    {
      "inputs": [
        {
          "internalType": "uint256",
          "name": "_preauthorizationId",
          "type": "uint256"
        }
      ],
      "name": "rejectPreauthorization",
      "outputs": [],
      "stateMutability": "nonpayable",
      "type": "function"
    },
    {
      "inputs": [
        {
          "internalType": "address",
          "name": "_insuranceCompanyAddress",
          "type": "address"
        }
      ],
      "name": "getPreauthorizationRequestsByInsuranceCompany",
      "outputs": [
        {
          "components": [
            {
              "internalType": "uint256",
              "name": "patientId",
              "type": "uint256"
            },
            {
              "internalType": "uint256",
              "name": "billId",
              "type": "uint256"
            },
            {
              "internalType": "address",
              "name": "insuranceCompanyAddress",
              "type": "address"
            },
            {
              "internalType": "uint256",
              "name": "policyId",
              "type": "uint256"
            },
            {
              "internalType": "enum Cashless.PreauthorizationStatus",
              "name": "isPreauthorized",
              "type": "uint8"
            },
            {
              "internalType": "uint256",
              "name": "requestTimestamp",
              "type": "uint256"
            },
            {
              "internalType": "uint256",
              "name": "approvedTimestamp",
              "type": "uint256"
            }
          ],
          "internalType": "struct Cashless.Preauthorization[]",
          "name": "",
          "type": "tuple[]"
        }
      ],
      "stateMutability": "view",
      "type": "function"
    }
  ],
  "bytecode": "0x608060405234801561001057600080fd5b5061472c806100206000396000f3fe608060405234801561001057600080fd5b50600436106101375760003560e01c8063ac12aaaa116100b8578063de54d4291161007c578063de54d42914610310578063ea1b22be1461032e578063f2b650d01461035e578063f4300c3e1461038e578063f535befb146103aa578063fc941bbd146103da57610137565b8063ac12aaaa14610284578063b5302361146102a0578063b779f051146102bc578063c44a9277146102d8578063c66533c1146102f457610137565b806341f9fbba116100ff57806341f9fbba146101e25780634c53b9df1461021257806358b799461461022e578063a0303c411461024a578063a5e6e51d1461026857610137565b8063041917931461013c578063044554191461015a57806315a3f262146101785780632993b37314610194578063350dadb7146101c4575b600080fd5b61014461040a565b60405161015191906128d7565b60405180910390f35b610162610410565b60405161016f91906128d7565b60405180910390f35b610192600480360381019061018d9190612b40565b610416565b005b6101ae60048036038101906101a99190612c16565b610542565b6040516101bb9190612e15565b60405180910390f35b6101cc6107e0565b6040516101d991906128d7565b60405180910390f35b6101fc60048036038101906101f79190612e37565b6107e6565b6040516102099190612f92565b60405180910390f35b61022c60048036038101906102279190612fb4565b610a05565b005b61024860048036038101906102439190613007565b610a5f565b005b610252610cde565b60405161025f91906128d7565b60405180910390f35b610282600480360381019061027d919061308a565b610ce4565b005b61029e6004803603810190610299919061321e565b610f3d565b005b6102ba60048036038101906102b59190613296565b611068565b005b6102d660048036038101906102d19190612e37565b611210565b005b6102f260048036038101906102ed9190613454565b61142c565b005b61030e60048036038101906103099190613296565b611770565b005b610318611934565b60405161032591906128d7565b60405180910390f35b61034860048036038101906103439190613296565b61193a565b6040516103559190613756565b60405180910390f35b61037860048036038101906103739190613296565b611cbe565b60405161038591906128d7565b60405180910390f35b6103a860048036038101906103a39190613778565b611cd6565b005b6103c460048036038101906103bf9190612c16565b611edb565b6040516103d19190613a79565b60405180910390f35b6103f460048036038101906103ef9190613296565b6122cb565b6040516104019190613bf9565b60405180910390f35b600b5481565b60085481565b6008600081548092919061042990613c4a565b9190505550604051806080016040528060085481526020018381526020018281526020013373ffffffffffffffffffffffffffffffffffffffff168152506001600060085481526020019081526020016000206000820151816000015560208201518160010190805190602001906104a292919061258b565b5060408201518160020190816104b89190613e9e565b5060608201518160030160006101000a81548173ffffffffffffffffffffffffffffffffffffffff021916908373ffffffffffffffffffffffffffffffffffffffff1602179055509050507fe77c8f37e34b74b41e1166c293f6133d1504890d12bb06d801af627515495cf360085483604051610536929190613fdf565b60405180910390a15050565b6060600080600190505b600b5481116105e0578373ffffffffffffffffffffffffffffffffffffffff16600c600083815260200190815260200160002060020160009054906101000a900473ffffffffffffffffffffffffffffffffffffffff1673ffffffffffffffffffffffffffffffffffffffff16036105cd5781806105c990613c4a565b9250505b80806105d890613c4a565b91505061054c565b5060008167ffffffffffffffff8111156105fd576105fc61291c565b5b60405190808252806020026020018201604052801561063657816020015b6106236125d8565b81526020019060019003908161061b5790505b509050600080600190505b600b5481116107d4578573ffffffffffffffffffffffffffffffffffffffff16600c600083815260200190815260200160002060020160009054906101000a900473ffffffffffffffffffffffffffffffffffffffff1673ffffffffffffffffffffffffffffffffffffffff16036107c157600c60008281526020019081526020016000206040518060e001604052908160008201548152602001600182015481526020016002820160009054906101000a900473ffffffffffffffffffffffffffffffffffffffff1673ffffffffffffffffffffffffffffffffffffffff1673ffffffffffffffffffffffffffffffffffffffff168152602001600382015481526020016004820160009054906101000a900460ff16600281111561076a57610769612c8d565b5b600281111561077c5761077b612c8d565b5b8152602001600582015481526020016006820154815250508383815181106107a7576107a661400f565b5b602002602001018190525081806107bd90613c4a565b9250505b80806107cc90613c4a565b915050610641565b50819350505050919050565b60075481565b6107ee61263d565b6000831180156108005750600a548311155b61083f576040517f08c379a00000000000000000000000000000000000000000000000000000000081526004016108369061409b565b60405180910390fd5b60008211801561087557508160056000858152602001908152602001600020600084815260200190815260200160002060000154145b6108b4576040517f08c379a00000000000000000000000000000000000000000000000000000000081526004016108ab90614107565b60405180910390fd5b6005600084815260200190815260200160002060008381526020019081526020016000206040518060e001604052908160008201548152602001600182015481526020016002820160009054906101000a900473ffffffffffffffffffffffffffffffffffffffff1673ffffffffffffffffffffffffffffffffffffffff1673ffffffffffffffffffffffffffffffffffffffff16815260200160038201805461095d90613cc1565b80601f016020809104026020016040519081016040528092919081815260200182805461098990613cc1565b80156109d65780601f106109ab576101008083540402835291602001916109d6565b820191906000526020600020905b8154815290600101906020018083116109b957829003601f168201915b505050505081526020016004820154815260200160058201548152602001600682015481525050905092915050565b806006600085815260200190815260200160002060008473ffffffffffffffffffffffffffffffffffffffff1673ffffffffffffffffffffffffffffffffffffffff16815260200190815260200160002081905550505050565b8060008082815260200190815260200160002060010160009054906101000a900473ffffffffffffffffffffffffffffffffffffffff1673ffffffffffffffffffffffffffffffffffffffff163373ffffffffffffffffffffffffffffffffffffffff1614610b03576040517f08c379a0000000000000000000000000000000000000000000000000000000008152600401610afa90614199565b60405180910390fd5b600060016004600088815260200190815260200160002054610b2591906141b9565b9050600460008781526020019081526020016000206000815480929190610b4b90613c4a565b9190505550600360008781526020019081526020016000206006018190806001815401808255809150506001900390600052602060002001600090919091909150556040518060e00160405280878152602001828152602001600073ffffffffffffffffffffffffffffffffffffffff1681526020018681526020014281526020016201518042610bdc919061421c565b815260200185815250600560008881526020019081526020016000206000838152602001908152602001600020600082015181600001556020820151816001015560408201518160020160006101000a81548173ffffffffffffffffffffffffffffffffffffffff021916908373ffffffffffffffffffffffffffffffffffffffff1602179055506060820151816003019081610c799190613e9e565b506080820151816004015560a0820151816005015560c082015181600601559050507f6746258bd4dc3961de3bd0fef53a987639aae292ced878d1044663960b5b3e59818786604051610cce9392919061424d565b60405180910390a1505050505050565b600a5481565b8460008082815260200190815260200160002060010160009054906101000a900473ffffffffffffffffffffffffffffffffffffffff1673ffffffffffffffffffffffffffffffffffffffff163373ffffffffffffffffffffffffffffffffffffffff1614610d88576040517f08c379a0000000000000000000000000000000000000000000000000000000008152600401610d7f90614199565b60405180910390fd5b600a6000815480929190610d9b90613c4a565b91905055506040518060e00160405280600a5481526020018681526020018581526020018481526020018373ffffffffffffffffffffffffffffffffffffffff168152602001878152602001600067ffffffffffffffff811115610e0257610e0161291c565b5b604051908082528060200260200182016040528015610e305781602001602082028036833780820191505090505b5081525060036000600a548152602001908152602001600020600082015181600001556020820151816001019081610e689190613e9e565b50604082015181600201556060820151816003019081610e889190613e9e565b5060808201518160040160006101000a81548173ffffffffffffffffffffffffffffffffffffffff021916908373ffffffffffffffffffffffffffffffffffffffff16021790555060a0820151816005015560c0820151816006019080519060200190610ef692919061258b565b509050507f6c19f22d83a1ce20713b4c747e3a78c3036498ced71d283c697d587033783bd0600a5486604051610f2d9291906142bd565b60405180910390a1505050505050565b60076000815480929190610f5090613c4a565b9190505550604051806080016040528060075481526020013373ffffffffffffffffffffffffffffffffffffffff1681526020018381526020018281525060008060075481526020019081526020016000206000820151816000015560208201518160010160006101000a81548173ffffffffffffffffffffffffffffffffffffffff021916908373ffffffffffffffffffffffffffffffffffffffff16021790555060408201518160020190816110089190613e9e565b506060820151816003019080519060200190611025929190612690565b509050507fa1fd3231f7912e48ffbf52db08250262416750cd0c9618106dd67eee527a1f026007543360405161105c9291906142fc565b60405180910390a15050565b600c600082815260200190815260200160002060020160009054906101000a900473ffffffffffffffffffffffffffffffffffffffff168073ffffffffffffffffffffffffffffffffffffffff163373ffffffffffffffffffffffffffffffffffffffff161461110d576040517f08c379a000000000000000000000000000000000000000000000000000000000815260040161110490614397565b60405180910390fd5b6002808111156111205761111f612c8d565b5b600c600084815260200190815260200160002060040160009054906101000a900460ff16600281111561115657611155612c8d565b5b03611196576040517f08c379a000000000000000000000000000000000000000000000000000000000815260040161118d90614403565b60405180910390fd5b6002600c600084815260200190815260200160002060040160006101000a81548160ff021916908360028111156111d0576111cf612c8d565b5b02179055507f56d74882d0df5b525123b8a0a5b1b16cd6918f15897439e113fb15bed337b7e98260405161120491906128d7565b60405180910390a15050565b600b600081548092919061122390613c4a565b9190505550600060056000848152602001908152602001600020600083815260200190815260200160002060020160009054906101000a900473ffffffffffffffffffffffffffffffffffffffff16905060006006600085815260200190815260200160002060008373ffffffffffffffffffffffffffffffffffffffff1673ffffffffffffffffffffffffffffffffffffffff1681526020019081526020016000205490506040518060e001604052808581526020018481526020018373ffffffffffffffffffffffffffffffffffffffff1681526020018281526020016000600281111561131657611315612c8d565b5b81526020014281526020016000815250600c6000600b548152602001908152602001600020600082015181600001556020820151816001015560408201518160020160006101000a81548173ffffffffffffffffffffffffffffffffffffffff021916908373ffffffffffffffffffffffffffffffffffffffff1602179055506060820151816003015560808201518160040160006101000a81548160ff021916908360028111156113cb576113ca612c8d565b5b021790555060a0820151816005015560c082015181600601559050507fc92afee2df9da8514d602cb137349226cae98de592c5ae8199917bfdea9a1e24600b5485838660405161141e9493929190614423565b60405180910390a150505050565b878073ffffffffffffffffffffffffffffffffffffffff163373ffffffffffffffffffffffffffffffffffffffff161461149b576040517f08c379a000000000000000000000000000000000000000000000000000000000815260040161149290614397565b60405180910390fd5b600960008154809291906114ae90613c4a565b919050555060008015158915151480156114cc575060001515881515145b1561150c576040517f08c379a0000000000000000000000000000000000000000000000000000000008152600401611503906144b4565b60405180910390fd5b6001151589151503611521576000905061153c565b6001151588151503611536576001905061153b565b600290505b5b60405180610120016040528060095481526020018c81526020018b73ffffffffffffffffffffffffffffffffffffffff16815260200182600281111561158557611584612c8d565b5b8152602001888152602001878152602001868152602001858152602001848152506002600060095481526020019081526020016000206000820151816000015560208201518160010190816115da9190613e9e565b5060408201518160020160006101000a81548173ffffffffffffffffffffffffffffffffffffffff021916908373ffffffffffffffffffffffffffffffffffffffff16021790555060608201518160020160146101000a81548160ff0219169083600281111561164d5761164c612c8d565b5b02179055506080820151816003015560a0820151816004016000820151816000015560208201518160010155505060c0820151816006016000820151816000015560208201518160010155505060e08201518160080160008201518160000160006101000a81548160ff02191690831515021790555060208201518160000160016101000a81548160ff02191690831515021790555060408201518160000160026101000a81548160ff021916908315150217905550505061010082015181600901600082015181600001556020820151816001015550509050507f80968e0cf0f9fbad1f441d6bcbc63de0fe2c2a21dcbd37b22b46e61c7695031f6009548c60405161175b9291906142bd565b60405180910390a15050505050505050505050565b600c600082815260200190815260200160002060020160009054906101000a900473ffffffffffffffffffffffffffffffffffffffff168073ffffffffffffffffffffffffffffffffffffffff163373ffffffffffffffffffffffffffffffffffffffff1614611815576040517f08c379a000000000000000000000000000000000000000000000000000000000815260040161180c90614397565b60405180910390fd5b6001600281111561182957611828612c8d565b5b600c600084815260200190815260200160002060040160009054906101000a900460ff16600281111561185f5761185e612c8d565b5b0361189f576040517f08c379a000000000000000000000000000000000000000000000000000000000815260040161189690614546565b60405180910390fd5b6001600c600084815260200190815260200160002060040160006101000a81548160ff021916908360028111156118d9576118d8612c8d565b5b021790555042600c6000848152602001908152602001600020600601819055507f109612b3153463a13d8c2840918ef74c26d7d0cae1746f6f5735a8e7e1f8bbb78260405161192891906128d7565b60405180910390a15050565b60095481565b606060008211801561194e57506007548211155b61198d576040517f08c379a0000000000000000000000000000000000000000000000000000000008152600401611984906145b2565b60405180910390fd5b600080600190505b600a5481116119dd57836003600083815260200190815260200160002060050154036119ca5781806119c690613c4a565b9250505b80806119d590613c4a565b915050611995565b5060008167ffffffffffffffff8111156119fa576119f961291c565b5b604051908082528060200260200182016040528015611a3357816020015b611a206126e9565b815260200190600190039081611a185790505b509050600080600190505b600a548111611cb25785600360008381526020019081526020016000206005015403611c9f57600360008281526020019081526020016000206040518060e001604052908160008201548152602001600182018054611a9c90613cc1565b80601f0160208091040260200160405190810160405280929190818152602001828054611ac890613cc1565b8015611b155780601f10611aea57610100808354040283529160200191611b15565b820191906000526020600020905b815481529060010190602001808311611af857829003601f168201915b5050505050815260200160028201548152602001600382018054611b3890613cc1565b80601f0160208091040260200160405190810160405280929190818152602001828054611b6490613cc1565b8015611bb15780601f10611b8657610100808354040283529160200191611bb1565b820191906000526020600020905b815481529060010190602001808311611b9457829003601f168201915b505050505081526020016004820160009054906101000a900473ffffffffffffffffffffffffffffffffffffffff1673ffffffffffffffffffffffffffffffffffffffff1673ffffffffffffffffffffffffffffffffffffffff1681526020016005820154815260200160068201805480602002602001604051908101604052809291908181526020018280548015611c6957602002820191906000526020600020905b815481526020019060010190808311611c55575b505050505081525050838381518110611c8557611c8461400f565b5b60200260200101819052508180611c9b90613c4a565b9250505b8080611caa90613c4a565b915050611a3e565b50819350505050919050565b60046020528060005260406000206000915090505481565b826003600082815260200190815260200160002060040160009054906101000a900473ffffffffffffffffffffffffffffffffffffffff1673ffffffffffffffffffffffffffffffffffffffff163373ffffffffffffffffffffffffffffffffffffffff1614611d7b576040517f08c379a0000000000000000000000000000000000000000000000000000000008152600401611d7290614644565b60405180910390fd5b600073ffffffffffffffffffffffffffffffffffffffff1660056000868152602001908152602001600020600085815260200190815260200160002060020160009054906101000a900473ffffffffffffffffffffffffffffffffffffffff1673ffffffffffffffffffffffffffffffffffffffff1603611e9a578160056000868152602001908152602001600020600085815260200190815260200160002060020160006101000a81548173ffffffffffffffffffffffffffffffffffffffff021916908373ffffffffffffffffffffffffffffffffffffffff1602179055507fe8dfa1000a377c1be6687e0c2f30a28b8ab10bc929a3272894b169f3385dea8b8483604051611e8d9291906142fc565b60405180910390a1611ed5565b6040517f08c379a0000000000000000000000000000000000000000000000000000000008152600401611ecc906146d6565b60405180910390fd5b50505050565b6060600080600190505b6009548111611f79578373ffffffffffffffffffffffffffffffffffffffff166002600083815260200190815260200160002060020160009054906101000a900473ffffffffffffffffffffffffffffffffffffffff1673ffffffffffffffffffffffffffffffffffffffff1603611f66578180611f6290613c4a565b9250505b8080611f7190613c4a565b915050611ee5565b5060008167ffffffffffffffff811115611f9657611f9561291c565b5b604051908082528060200260200182016040528015611fcf57816020015b611fbc61273c565b815260200190600190039081611fb45790505b509050600080600190505b60095481116122bf578573ffffffffffffffffffffffffffffffffffffffff166002600083815260200190815260200160002060020160009054906101000a900473ffffffffffffffffffffffffffffffffffffffff1673ffffffffffffffffffffffffffffffffffffffff16036122ac5760026000828152602001908152602001600020604051806101200160405290816000820154815260200160018201805461208590613cc1565b80601f01602080910402602001604051908101604052809291908181526020018280546120b190613cc1565b80156120fe5780601f106120d3576101008083540402835291602001916120fe565b820191906000526020600020905b8154815290600101906020018083116120e157829003601f168201915b505050505081526020016002820160009054906101000a900473ffffffffffffffffffffffffffffffffffffffff1673ffffffffffffffffffffffffffffffffffffffff1673ffffffffffffffffffffffffffffffffffffffff1681526020016002820160149054906101000a900460ff16600281111561218257612181612c8d565b5b600281111561219457612193612c8d565b5b8152602001600382015481526020016004820160405180604001604052908160008201548152602001600182015481525050815260200160068201604051806040016040529081600082015481526020016001820154815250508152602001600882016040518060600160405290816000820160009054906101000a900460ff161515151581526020016000820160019054906101000a900460ff161515151581526020016000820160029054906101000a900460ff16151515158152505081526020016009820160405180604001604052908160008201548152602001600182015481525050815250508383815181106122925761229161400f565b5b602002602001018190525081806122a890613c4a565b9250505b80806122b790613c4a565b915050611fda565b50819350505050919050565b60606000821180156122df5750600a548211155b61231e576040517f08c379a00000000000000000000000000000000000000000000000000000000081526004016123159061409b565b60405180910390fd5b60006003600084815260200190815260200160002060060180548060200260200160405190810160405280929190818152602001828054801561238057602002820191906000526020600020905b81548152602001906001019080831161236c575b505050505090506000815167ffffffffffffffff8111156123a4576123a361291c565b5b6040519080825280602002602001820160405280156123dd57816020015b6123ca61263d565b8152602001906001900390816123c25790505b50905060005b8251811015612580576005600086815260200190815260200160002060008483815181106124145761241361400f565b5b602002602001015181526020019081526020016000206040518060e001604052908160008201548152602001600182015481526020016002820160009054906101000a900473ffffffffffffffffffffffffffffffffffffffff1673ffffffffffffffffffffffffffffffffffffffff1673ffffffffffffffffffffffffffffffffffffffff1681526020016003820180546124af90613cc1565b80601f01602080910402602001604051908101604052809291908181526020018280546124db90613cc1565b80156125285780601f106124fd57610100808354040283529160200191612528565b820191906000526020600020905b81548152906001019060200180831161250b57829003601f168201915b5050505050815260200160048201548152602001600582015481526020016006820154815250508282815181106125625761256161400f565b5b6020026020010181905250808061257890613c4a565b9150506123e3565b508092505050919050565b8280548282559060005260206000209081019282156125c7579160200282015b828111156125c65782518255916020019190600101906125ab565b5b5090506125d491906127c8565b5090565b6040518060e001604052806000815260200160008152602001600073ffffffffffffffffffffffffffffffffffffffff168152602001600081526020016000600281111561262957612628612c8d565b5b815260200160008152602001600081525090565b6040518060e001604052806000815260200160008152602001600073ffffffffffffffffffffffffffffffffffffffff168152602001606081526020016000815260200160008152602001600081525090565b8280548282559060005260206000209081019282156126d8579160200282015b828111156126d75782518290816126c79190613e9e565b50916020019190600101906126b0565b5b5090506126e591906127e5565b5090565b6040518060e0016040528060008152602001606081526020016000815260200160608152602001600073ffffffffffffffffffffffffffffffffffffffff16815260200160008152602001606081525090565b6040518061012001604052806000815260200160608152602001600073ffffffffffffffffffffffffffffffffffffffff1681526020016000600281111561278757612786612c8d565b5b81526020016000815260200161279b612809565b81526020016127a8612823565b81526020016127b561283d565b81526020016127c2612864565b81525090565b5b808211156127e15760008160009055506001016127c9565b5090565b5b8082111561280557600081816127fc919061287e565b506001016127e6565b5090565b604051806040016040528060008152602001600081525090565b604051806040016040528060008152602001600081525090565b60405180606001604052806000151581526020016000151581526020016000151581525090565b604051806040016040528060008152602001600081525090565b50805461288a90613cc1565b6000825580601f1061289c57506128bb565b601f0160209004906000526020600020908101906128ba91906127c8565b5b50565b6000819050919050565b6128d1816128be565b82525050565b60006020820190506128ec60008301846128c8565b92915050565b6000604051905090565b600080fd5b600080fd5b600080fd5b6000601f19601f8301169050919050565b7f4e487b7100000000000000000000000000000000000000000000000000000000600052604160045260246000fd5b6129548261290b565b810181811067ffffffffffffffff821117156129735761297261291c565b5b80604052505050565b60006129866128f2565b9050612992828261294b565b919050565b600067ffffffffffffffff8211156129b2576129b161291c565b5b602082029050602081019050919050565b600080fd5b6129d1816128be565b81146129dc57600080fd5b50565b6000813590506129ee816129c8565b92915050565b6000612a07612a0284612997565b61297c565b90508083825260208201905060208402830185811115612a2a57612a296129c3565b5b835b81811015612a535780612a3f88826129df565b845260208401935050602081019050612a2c565b5050509392505050565b600082601f830112612a7257612a71612906565b5b8135612a828482602086016129f4565b91505092915050565b600080fd5b600067ffffffffffffffff821115612aab57612aaa61291c565b5b612ab48261290b565b9050602081019050919050565b82818337600083830152505050565b6000612ae3612ade84612a90565b61297c565b905082815260208101848484011115612aff57612afe612a8b565b5b612b0a848285612ac1565b509392505050565b600082601f830112612b2757612b26612906565b5b8135612b37848260208601612ad0565b91505092915050565b60008060408385031215612b5757612b566128fc565b5b600083013567ffffffffffffffff811115612b7557612b74612901565b5b612b8185828601612a5d565b925050602083013567ffffffffffffffff811115612ba257612ba1612901565b5b612bae85828601612b12565b9150509250929050565b600073ffffffffffffffffffffffffffffffffffffffff82169050919050565b6000612be382612bb8565b9050919050565b612bf381612bd8565b8114612bfe57600080fd5b50565b600081359050612c1081612bea565b92915050565b600060208284031215612c2c57612c2b6128fc565b5b6000612c3a84828501612c01565b91505092915050565b600081519050919050565b600082825260208201905092915050565b6000819050602082019050919050565b612c78816128be565b82525050565b612c8781612bd8565b82525050565b7f4e487b7100000000000000000000000000000000000000000000000000000000600052602160045260246000fd5b60038110612ccd57612ccc612c8d565b5b50565b6000819050612cde82612cbc565b919050565b6000612cee82612cd0565b9050919050565b612cfe81612ce3565b82525050565b60e082016000820151612d1a6000850182612c6f565b506020820151612d2d6020850182612c6f565b506040820151612d406040850182612c7e565b506060820151612d536060850182612c6f565b506080820151612d666080850182612cf5565b5060a0820151612d7960a0850182612c6f565b5060c0820151612d8c60c0850182612c6f565b50505050565b6000612d9e8383612d04565b60e08301905092915050565b6000602082019050919050565b6000612dc282612c43565b612dcc8185612c4e565b9350612dd783612c5f565b8060005b83811015612e08578151612def8882612d92565b9750612dfa83612daa565b925050600181019050612ddb565b5085935050505092915050565b60006020820190508181036000830152612e2f8184612db7565b905092915050565b60008060408385031215612e4e57612e4d6128fc565b5b6000612e5c858286016129df565b9250506020612e6d858286016129df565b9150509250929050565b600081519050919050565b600082825260208201905092915050565b60005b83811015612eb1578082015181840152602081019050612e96565b60008484015250505050565b6000612ec882612e77565b612ed28185612e82565b9350612ee2818560208601612e93565b612eeb8161290b565b840191505092915050565b600060e083016000830151612f0e6000860182612c6f565b506020830151612f216020860182612c6f565b506040830151612f346040860182612c7e565b5060608301518482036060860152612f4c8282612ebd565b9150506080830151612f616080860182612c6f565b5060a0830151612f7460a0860182612c6f565b5060c0830151612f8760c0860182612c6f565b508091505092915050565b60006020820190508181036000830152612fac8184612ef6565b905092915050565b600080600060608486031215612fcd57612fcc6128fc565b5b6000612fdb868287016129df565b9350506020612fec86828701612c01565b9250506040612ffd868287016129df565b9150509250925092565b60008060008060808587031215613021576130206128fc565b5b600061302f878288016129df565b945050602085013567ffffffffffffffff8111156130505761304f612901565b5b61305c87828801612b12565b935050604061306d878288016129df565b925050606061307e878288016129df565b91505092959194509250565b600080600080600060a086880312156130a6576130a56128fc565b5b60006130b4888289016129df565b955050602086013567ffffffffffffffff8111156130d5576130d4612901565b5b6130e188828901612b12565b94505060406130f2888289016129df565b935050606086013567ffffffffffffffff81111561311357613112612901565b5b61311f88828901612b12565b925050608061313088828901612c01565b9150509295509295909350565b600067ffffffffffffffff8211156131585761315761291c565b5b602082029050602081019050919050565b600061317c6131778461313d565b61297c565b9050808382526020820190506020840283018581111561319f5761319e6129c3565b5b835b818110156131e657803567ffffffffffffffff8111156131c4576131c3612906565b5b8086016131d18982612b12565b855260208501945050506020810190506131a1565b5050509392505050565b600082601f83011261320557613204612906565b5b8135613215848260208601613169565b91505092915050565b60008060408385031215613235576132346128fc565b5b600083013567ffffffffffffffff81111561325357613252612901565b5b61325f85828601612b12565b925050602083013567ffffffffffffffff8111156132805761327f612901565b5b61328c858286016131f0565b9150509250929050565b6000602082840312156132ac576132ab6128fc565b5b60006132ba848285016129df565b91505092915050565b60008115159050919050565b6132d8816132c3565b81146132e357600080fd5b50565b6000813590506132f5816132cf565b92915050565b600080fd5b600060408284031215613316576133156132fb565b5b613320604061297c565b90506000613330848285016129df565b6000830152506020613344848285016129df565b60208301525092915050565b600060408284031215613366576133656132fb565b5b613370604061297c565b90506000613380848285016129df565b6000830152506020613394848285016129df565b60208301525092915050565b6000606082840312156133b6576133b56132fb565b5b6133c0606061297c565b905060006133d0848285016132e6565b60008301525060206133e4848285016132e6565b60208301525060406133f8848285016132e6565b60408301525092915050565b60006040828403121561341a576134196132fb565b5b613424604061297c565b90506000613434848285016129df565b6000830152506020613448848285016129df565b60208301525092915050565b60008060008060008060008060006101c08a8c031215613477576134766128fc565b5b60008a013567ffffffffffffffff81111561349557613494612901565b5b6134a18c828d01612b12565b99505060206134b28c828d01612c01565b98505060406134c38c828d016132e6565b97505060606134d48c828d016132e6565b96505060806134e58c828d016129df565b95505060a06134f68c828d01613300565b94505060e06135078c828d01613350565b9350506101206135198c828d016133a0565b92505061018061352b8c828d01613404565b9150509295985092959850929598565b600081519050919050565b600082825260208201905092915050565b6000819050602082019050919050565b600081519050919050565b600082825260208201905092915050565b6000819050602082019050919050565b600061359f8383612c6f565b60208301905092915050565b6000602082019050919050565b60006135c382613567565b6135cd8185613572565b93506135d883613583565b8060005b838110156136095781516135f08882613593565b97506135fb836135ab565b9250506001810190506135dc565b5085935050505092915050565b600060e08301600083015161362e6000860182612c6f565b50602083015184820360208601526136468282612ebd565b915050604083015161365b6040860182612c6f565b50606083015184820360608601526136738282612ebd565b91505060808301516136886080860182612c7e565b5060a083015161369b60a0860182612c6f565b5060c083015184820360c08601526136b382826135b8565b9150508091505092915050565b60006136cc8383613616565b905092915050565b6000602082019050919050565b60006136ec8261353b565b6136f68185613546565b93508360208202850161370885613557565b8060005b85811015613744578484038952815161372585826136c0565b9450613730836136d4565b925060208a0199505060018101905061370c565b50829750879550505050505092915050565b6000602082019050818103600083015261377081846136e1565b905092915050565b600080600060608486031215613791576137906128fc565b5b600061379f868287016129df565b93505060206137b0868287016129df565b92505060406137c186828701612c01565b9150509250925092565b600081519050919050565b600082825260208201905092915050565b6000819050602082019050919050565b6003811061380857613807612c8d565b5b50565b6000819050613819826137f7565b919050565b60006138298261380b565b9050919050565b6138398161381e565b82525050565b6040820160008201516138556000850182612c6f565b5060208201516138686020850182612c6f565b50505050565b6040820160008201516138846000850182612c6f565b5060208201516138976020850182612c6f565b50505050565b6138a6816132c3565b82525050565b6060820160008201516138c2600085018261389d565b5060208201516138d5602085018261389d565b5060408201516138e8604085018261389d565b50505050565b6040820160008201516139046000850182612c6f565b5060208201516139176020850182612c6f565b50505050565b60006101c0830160008301516139366000860182612c6f565b506020830151848203602086015261394e8282612ebd565b91505060408301516139636040860182612c7e565b5060608301516139766060860182613830565b5060808301516139896080860182612c6f565b5060a083015161399c60a086018261383f565b5060c08301516139af60e086018261386e565b5060e08301516139c36101208601826138ac565b506101008301516139d86101808601826138ee565b508091505092915050565b60006139ef838361391d565b905092915050565b6000602082019050919050565b6000613a0f826137cb565b613a1981856137d6565b935083602082028501613a2b856137e7565b8060005b85811015613a675784840389528151613a4885826139e3565b9450613a53836139f7565b925060208a01995050600181019050613a2f565b50829750879550505050505092915050565b60006020820190508181036000830152613a938184613a04565b905092915050565b600081519050919050565b600082825260208201905092915050565b6000819050602082019050919050565b600060e083016000830151613adf6000860182612c6f565b506020830151613af26020860182612c6f565b506040830151613b056040860182612c7e565b5060608301518482036060860152613b1d8282612ebd565b9150506080830151613b326080860182612c6f565b5060a0830151613b4560a0860182612c6f565b5060c0830151613b5860c0860182612c6f565b508091505092915050565b6000613b6f8383613ac7565b905092915050565b6000602082019050919050565b6000613b8f82613a9b565b613b998185613aa6565b935083602082028501613bab85613ab7565b8060005b85811015613be75784840389528151613bc88582613b63565b9450613bd383613b77565b925060208a01995050600181019050613baf565b50829750879550505050505092915050565b60006020820190508181036000830152613c138184613b84565b905092915050565b7f4e487b7100000000000000000000000000000000000000000000000000000000600052601160045260246000fd5b6000613c55826128be565b91507fffffffffffffffffffffffffffffffffffffffffffffffffffffffffffffffff8203613c8757613c86613c1b565b5b600182019050919050565b7f4e487b7100000000000000000000000000000000000000000000000000000000600052602260045260246000fd5b60006002820490506001821680613cd957607f821691505b602082108103613cec57613ceb613c92565b5b50919050565b60008190508160005260206000209050919050565b60006020601f8301049050919050565b600082821b905092915050565b600060088302613d547fffffffffffffffffffffffffffffffffffffffffffffffffffffffffffffffff82613d17565b613d5e8683613d17565b95508019841693508086168417925050509392505050565b6000819050919050565b6000613d9b613d96613d91846128be565b613d76565b6128be565b9050919050565b6000819050919050565b613db583613d80565b613dc9613dc182613da2565b848454613d24565b825550505050565b600090565b613dde613dd1565b613de9818484613dac565b505050565b5b81811015613e0d57613e02600082613dd6565b600181019050613def565b5050565b601f821115613e5257613e2381613cf2565b613e2c84613d07565b81016020851015613e3b578190505b613e4f613e4785613d07565b830182613dee565b50505b505050565b600082821c905092915050565b6000613e7560001984600802613e57565b1980831691505092915050565b6000613e8e8383613e64565b9150826002028217905092915050565b613ea782612e77565b67ffffffffffffffff811115613ec057613ebf61291c565b5b613eca8254613cc1565b613ed5828285613e11565b600060209050601f831160018114613f085760008415613ef6578287015190505b613f008582613e82565b865550613f68565b601f198416613f1686613cf2565b60005b82811015613f3e57848901518255600182019150602085019450602081019050613f19565b86831015613f5b5784890151613f57601f891682613e64565b8355505b6001600288020188555050505b505050505050565b600082825260208201905092915050565b6000613f8c82613567565b613f968185613f70565b9350613fa183613583565b8060005b83811015613fd2578151613fb98882613593565b9750613fc4836135ab565b925050600181019050613fa5565b5085935050505092915050565b6000604082019050613ff460008301856128c8565b81810360208301526140068184613f81565b90509392505050565b7f4e487b7100000000000000000000000000000000000000000000000000000000600052603260045260246000fd5b600082825260208201905092915050565b7f496e76616c69642070617469656e742049440000000000000000000000000000600082015250565b600061408560128361403e565b91506140908261404f565b602082019050919050565b600060208201905081810360008301526140b481614078565b9050919050565b7f496e76616c69642062696c6c2049440000000000000000000000000000000000600082015250565b60006140f1600f8361403e565b91506140fc826140bb565b602082019050919050565b60006020820190508181036000830152614120816140e4565b9050919050565b7f4f6e6c792074686520686f73706974616c2063616e20706572666f726d20746860008201527f697320616374696f6e0000000000000000000000000000000000000000000000602082015250565b600061418360298361403e565b915061418e82614127565b604082019050919050565b600060208201905081810360008301526141b281614176565b9050919050565b60006141c4826128be565b91506141cf836128be565b92508282019050808211156141e7576141e6613c1b565b5b92915050565b7f4e487b7100000000000000000000000000000000000000000000000000000000600052601260045260246000fd5b6000614227826128be565b9150614232836128be565b925082614242576142416141ed565b5b828204905092915050565b600060608201905061426260008301866128c8565b61426f60208301856128c8565b61427c60408301846128c8565b949350505050565b600061428f82612e77565b614299818561403e565b93506142a9818560208601612e93565b6142b28161290b565b840191505092915050565b60006040820190506142d260008301856128c8565b81810360208301526142e48184614284565b90509392505050565b6142f681612bd8565b82525050565b600060408201905061431160008301856128c8565b61431e60208301846142ed565b9392505050565b7f4f6e6c792074686520696e737572616e636520636f6d70616e792063616e207060008201527f6572666f726d207468697320616374696f6e0000000000000000000000000000602082015250565b600061438160328361403e565b915061438c82614325565b604082019050919050565b600060208201905081810360008301526143b081614374565b9050919050565b7f497420697320616c72656164792072656a656374656400000000000000000000600082015250565b60006143ed60168361403e565b91506143f8826143b7565b602082019050919050565b6000602082019050818103600083015261441c816143e0565b9050919050565b600060808201905061443860008301876128c8565b61444560208301866128c8565b61445260408301856128c8565b61445f60608301846128c8565b95945050505050565b7f506c656173652053656c656374204f6e65205479706500000000000000000000600082015250565b600061449e60168361403e565b91506144a982614468565b602082019050919050565b600060208201905081810360008301526144cd81614491565b9050919050565b7f507265617574686f72697a6174696f6e20616c72656164792070726f6365737360008201527f6564000000000000000000000000000000000000000000000000000000000000602082015250565b600061453060228361403e565b915061453b826144d4565b604082019050919050565b6000602082019050818103600083015261455f81614523565b9050919050565b7f496e76616c696420686f73706974616c20494400000000000000000000000000600082015250565b600061459c60138361403e565b91506145a782614566565b602082019050919050565b600060208201905081810360008301526145cb8161458f565b9050919050565b7f4f6e6c79207468652070617469656e742063616e20706572666f726d2074686960008201527f7320616374696f6e000000000000000000000000000000000000000000000000602082015250565b600061462e60288361403e565b9150614639826145d2565b604082019050919050565b6000602082019050818103600083015261465d81614621565b9050919050565b7f496e737572616e636520436f6d70616e7920616c72656164792061737369676e60008201527f6564000000000000000000000000000000000000000000000000000000000000602082015250565b60006146c060228361403e565b91506146cb82614664565b604082019050919050565b600060208201905081810360008301526146ef816146b3565b905091905056fea2646970667358221220de6ff6c8fc90df268e656e267a21f5ce4987a33c34eb2b846032625b0406614864736f6c63430008110033",
  "immutableReferences": {},
  "source": "// SPDX-License-Identifier: MIT\r\npragma solidity ^0.8.0;\r\n\r\nimport {MainStructure} from \"./Main_Structure.sol\";\r\n\r\n\r\ncontract Cashless is MainStructure{\r\n    struct Preauthorization {\r\n        uint256 patientId;\r\n        uint256 billId;\r\n        address insuranceCompanyAddress;\r\n        uint256 policyId;\r\n        PreauthorizationStatus isPreauthorized; \r\n        uint256 requestTimestamp;\r\n        uint256 approvedTimestamp;\r\n    }\r\n    mapping(uint256 => Preauthorization)  preauthorizations;\r\n    enum PreauthorizationStatus{ PENDING, APPROVED,REJECTED }\r\n    event PreauthorizationRequested(uint256 preauthorizationId, uint256 patientId, uint256 policyId, uint256 isCashless);\r\n    event PreauthorizationApproved(uint256 preauthorizationId);\r\n    event PreauthorizationRejected(uint256 preauthorizationId);\r\n\r\n    function requestPreauthorization(\r\n        uint256 _patientId,\r\n        uint256 _billId\r\n    ) public {\r\n        preauthorizationCount++;\r\n        address insuranceCompany= medicalBills[_patientId][_billId].assignedInsuranceCompany;\r\n        uint256 policyId=patientInsurancePolicies[_patientId][insuranceCompany]; \r\n        preauthorizations[preauthorizationCount] = Preauthorization(\r\n            _patientId,\r\n            _billId,\r\n            insuranceCompany,\r\n            policyId,\r\n            PreauthorizationStatus.PENDING,\r\n            block.timestamp,\r\n            0\r\n        );\r\n        emit PreauthorizationRequested(preauthorizationCount, _patientId, policyId, _billId );\r\n    }\r\n\r\n    function approvePreauthorization(uint256 _preauthorizationId) \r\n    public \r\n    onlyInsuranceCompany(preauthorizations[_preauthorizationId].insuranceCompanyAddress)\r\n    {\r\n        require(preauthorizations[_preauthorizationId].isPreauthorized != PreauthorizationStatus.APPROVED, \"Preauthorization already processed\");\r\n        preauthorizations[_preauthorizationId].isPreauthorized = PreauthorizationStatus.APPROVED;\r\n        preauthorizations[_preauthorizationId].approvedTimestamp = block.timestamp;\r\n        emit PreauthorizationApproved(_preauthorizationId);\r\n    }\r\n\r\n    function rejectPreauthorization(uint256 _preauthorizationId) \r\n    public \r\n    onlyInsuranceCompany(preauthorizations[_preauthorizationId].insuranceCompanyAddress)\r\n    {\r\n        require(preauthorizations[_preauthorizationId].isPreauthorized != PreauthorizationStatus.REJECTED, \"It is already rejected\");\r\n       preauthorizations[_preauthorizationId].isPreauthorized = PreauthorizationStatus.REJECTED;\r\n       emit PreauthorizationRejected(_preauthorizationId);\r\n   }\r\n\r\n    modifier cashlessTreatment(uint256 _preauthorizationId) {\r\n        Preauthorization storage preauth = preauthorizations[_preauthorizationId];\r\n        require(preauth.isPreauthorized == PreauthorizationStatus.APPROVED, \"Preauthorization not approved\");\r\n        \r\n        Policy storage policy = policies[preauth.policyId];\r\n        require(policy.policyType == PolicyType.CASHLESS || policy.policyType == PolicyType.BOTH, \"Policy does not cover cashless treatment\");\r\n        _;\r\n    }\r\n\r\n   \r\n    function calculateCopayment(uint256 _policyId, uint256 _billAmount) internal view returns (uint256) {\r\n        Policy storage policy = policies[_policyId];\r\n        uint256 copayment;\r\n        if (policy.copayment.fixedCharge > 0)\r\n        copayment= policy.copayment.fixedCharge;\r\n        \r\n\r\n        if (policy.copayment.percentageCharge > 0) {\r\n            copayment += (_billAmount * policy.copayment.percentageCharge) / 100;\r\n        }\r\n\r\n        return copayment;\r\n    }\r\n\r\n    function calculateDeductible(uint256 _policyId, uint256 _billAmount) internal view returns (uint256) {\r\n        Policy storage policy = policies[_policyId];\r\n        uint256 deductible = 0;\r\n\r\n        if (_billAmount >= policy.deductible.annual) {\r\n            deductible = policy.deductible.annual;\r\n        }    \r\n\r\n        deductible += policy.deductible.perInstance;\r\n\r\n        return deductible;\r\n    }\r\n\r\n    function isNonCoveredExpense(uint256 _policyId, string memory _expenseType) internal view returns (bool) {\r\n        Policy storage policy = policies[_policyId];\r\n        if (keccak256(bytes(_expenseType)) == keccak256(bytes(\"facelift\"))) {\r\n            return policy.noncoveredExpense.facelift;\r\n        } else if (keccak256(bytes(_expenseType)) == keccak256(bytes(\"hairTransplant\"))) {\r\n            return policy.noncoveredExpense.hairTransplant;\r\n        } else if (keccak256(bytes(_expenseType)) == keccak256(bytes(\"alternativeTherapy\"))) {\r\n            return policy.noncoveredExpense.alternativeTherapy;\r\n        }\r\n        return false;\r\n    }\r\n\r\n    function checkSublimits(uint256 _policyId, uint256 _roomRentAmount, uint256 _surgeryAmount) internal view returns (bool, uint256) {\r\n        Policy storage policy = policies[_policyId];\r\n        uint256 sublimitOff = 0; \r\n        \r\n        if (_roomRentAmount > policy.sublimit.roomRentLimit || _surgeryAmount > policy.sublimit.surgeryLimit) \r\n            return (false,0);\r\n        \r\n\r\n        if (_roomRentAmount <= policy.sublimit.roomRentLimit) {\r\n            sublimitOff += policy.sublimit.roomRentLimit - _roomRentAmount;\r\n        }\r\n\r\n        if (_surgeryAmount <= policy.sublimit.surgeryLimit) {\r\n            sublimitOff += policy.sublimit.surgeryLimit - _surgeryAmount;\r\n        }\r\n\r\n        return (true, sublimitOff); \r\n    }\r\n\r\n\r\n    function getPreauthorizationRequestsByInsuranceCompany(address _insuranceCompanyAddress) public view returns (Preauthorization[] memory) {\r\n    uint256 count = 0;\r\n    for (uint256 i = 1; i <= preauthorizationCount; i++) {\r\n        if (preauthorizations[i].insuranceCompanyAddress == _insuranceCompanyAddress) {\r\n            count++;\r\n        }\r\n    }\r\n\r\n    Preauthorization[] memory preauthorizationRequests = new Preauthorization[](count);\r\n    uint256 index = 0;\r\n    for (uint256 i = 1; i <= preauthorizationCount; i++) {\r\n        if (preauthorizations[i].insuranceCompanyAddress == _insuranceCompanyAddress) {\r\n            preauthorizationRequests[index] = preauthorizations[i];\r\n            index++;\r\n        }\r\n    }\r\n\r\n    return preauthorizationRequests;\r\n}\r\n}",
  "sourcePath": "D:\\semester 6\\Block Chain\\Patient-Management-System-Decentralized\\contracts\\Cashless.sol",
  "compiler": {
    "name": "solc",
    "version": "0.8.17+commit.8df45f5f.Emscripten.clang"
  },
  "schemaVersion": "3.4.16",
  "updatedAt": "2024-05-18T16:10:40.652Z",
  "devdoc": {
    "kind": "dev",
    "methods": {},
    "version": 1
  },
  "userdoc": {
    "kind": "user",
    "methods": {},
    "version": 1
  }
}