{
  "contractName": "PatientManagementSystem",
  "abi": [
    {
      "anonymous": false,
      "inputs": [
        {
          "indexed": false,
          "internalType": "uint256",
          "name": "billId",
          "type": "uint256"
        },
        {
          "indexed": false,
          "internalType": "uint256",
          "name": "patientId",
          "type": "uint256"
        },
        {
          "indexed": false,
          "internalType": "uint256",
          "name": "amount",
          "type": "uint256"
        }
      ],
      "name": "BillGenerated",
      "type": "event"
    },
    {
      "anonymous": false,
      "inputs": [
        {
          "indexed": false,
          "internalType": "uint256",
          "name": "hospitalId",
          "type": "uint256"
        },
        {
          "indexed": false,
          "internalType": "address",
          "name": "hospitalAddress",
          "type": "address"
        }
      ],
      "name": "HospitalRegistered",
      "type": "event"
    },
    {
      "anonymous": false,
      "inputs": [
        {
          "indexed": false,
          "internalType": "uint256",
          "name": "patientId",
          "type": "uint256"
        },
        {
          "indexed": false,
          "internalType": "address",
          "name": "insuranceCompany",
          "type": "address"
        }
      ],
      "name": "InsuranceCompanyAssigned",
      "type": "event"
    },
    {
      "anonymous": false,
      "inputs": [
        {
          "indexed": false,
          "internalType": "uint256",
          "name": "insuranceCompanyId",
          "type": "uint256"
        },
        {
          "indexed": false,
          "internalType": "uint256[]",
          "name": "networkHospitals",
          "type": "uint256[]"
        }
      ],
      "name": "InsuranceCompanyRegistered",
      "type": "event"
    },
    {
      "anonymous": false,
      "inputs": [
        {
          "indexed": false,
          "internalType": "uint256",
          "name": "patientId",
          "type": "uint256"
        },
        {
          "indexed": false,
          "internalType": "string",
          "name": "name",
          "type": "string"
        }
      ],
      "name": "PatientRegistered",
      "type": "event"
    },
    {
      "anonymous": false,
      "inputs": [
        {
          "indexed": false,
          "internalType": "uint256",
          "name": "policyId",
          "type": "uint256"
        },
        {
          "indexed": false,
          "internalType": "string",
          "name": "description",
          "type": "string"
        }
      ],
      "name": "PolicyCreated",
      "type": "event"
    },
    {
      "anonymous": false,
      "inputs": [
        {
          "indexed": false,
          "internalType": "uint256",
          "name": "preauthorizationId",
          "type": "uint256"
        }
      ],
      "name": "PreauthorizationApproved",
      "type": "event"
    },
    {
      "anonymous": false,
      "inputs": [
        {
          "indexed": false,
          "internalType": "uint256",
          "name": "preauthorizationId",
          "type": "uint256"
        }
      ],
      "name": "PreauthorizationRejected",
      "type": "event"
    },
    {
      "anonymous": false,
      "inputs": [
        {
          "indexed": false,
          "internalType": "uint256",
          "name": "preauthorizationId",
          "type": "uint256"
        },
        {
          "indexed": false,
          "internalType": "uint256",
          "name": "patientId",
          "type": "uint256"
        },
        {
          "indexed": false,
          "internalType": "uint256",
          "name": "policyId",
          "type": "uint256"
        },
        {
          "indexed": false,
          "internalType": "uint256",
          "name": "isCashless",
          "type": "uint256"
        }
      ],
      "name": "PreauthorizationRequested",
      "type": "event"
    },
    {
      "anonymous": false,
      "inputs": [
        {
          "indexed": false,
          "internalType": "uint256",
          "name": "claimId",
          "type": "uint256"
        },
        {
          "indexed": false,
          "internalType": "uint256",
          "name": "patientId",
          "type": "uint256"
        },
        {
          "indexed": false,
          "internalType": "uint256",
          "name": "billId",
          "type": "uint256"
        },
        {
          "indexed": false,
          "internalType": "uint256",
          "name": "claimAmount",
          "type": "uint256"
        }
      ],
      "name": "ReimbursementClaimSettled",
      "type": "event"
    },
    {
      "anonymous": false,
      "inputs": [
        {
          "indexed": false,
          "internalType": "uint256",
          "name": "claimId",
          "type": "uint256"
        },
        {
          "indexed": false,
          "internalType": "uint256",
          "name": "patientId",
          "type": "uint256"
        },
        {
          "indexed": false,
          "internalType": "uint256",
          "name": "billId",
          "type": "uint256"
        },
        {
          "indexed": false,
          "internalType": "uint256",
          "name": "claimAmount",
          "type": "uint256"
        }
      ],
      "name": "ReimbursementClaimSubmitted",
      "type": "event"
    },
    {
      "inputs": [
        {
          "internalType": "uint256",
          "name": "_preauthorizationId",
          "type": "uint256"
        }
      ],
      "name": "approvePreauthorization",
      "outputs": [],
      "stateMutability": "nonpayable",
      "type": "function"
    },
    {
      "inputs": [
        {
          "internalType": "uint256",
          "name": "_patientId",
          "type": "uint256"
        },
        {
          "internalType": "uint256",
          "name": "billId",
          "type": "uint256"
        },
        {
          "internalType": "address",
          "name": "_insuranceCompany",
          "type": "address"
        }
      ],
      "name": "assignInsuranceCompanyForMedicalBill",
      "outputs": [],
      "stateMutability": "nonpayable",
      "type": "function"
    },
    {
      "inputs": [
        {
          "internalType": "uint256",
          "name": "_patientId",
          "type": "uint256"
        },
        {
          "internalType": "address",
          "name": "_insuranceCompany",
          "type": "address"
        },
        {
          "internalType": "uint256",
          "name": "_policyId",
          "type": "uint256"
        }
      ],
      "name": "assignInsurancePolicy",
      "outputs": [],
      "stateMutability": "nonpayable",
      "type": "function"
    },
    {
      "inputs": [
        {
          "internalType": "uint256",
          "name": "",
          "type": "uint256"
        }
      ],
      "name": "billCounters",
      "outputs": [
        {
          "internalType": "uint256",
          "name": "",
          "type": "uint256"
        }
      ],
      "stateMutability": "view",
      "type": "function",
      "constant": true
    },
    {
      "inputs": [
        {
          "internalType": "uint256",
          "name": "_patientId",
          "type": "uint256"
        },
        {
          "internalType": "string",
          "name": "_details",
          "type": "string"
        },
        {
          "internalType": "uint256",
          "name": "_amount",
          "type": "uint256"
        },
        {
          "internalType": "uint256",
          "name": "_hospitalId",
          "type": "uint256"
        }
      ],
      "name": "createMedicalBill",
      "outputs": [],
      "stateMutability": "nonpayable",
      "type": "function"
    },
    {
      "inputs": [
        {
          "internalType": "string",
          "name": "_description",
          "type": "string"
        },
        {
          "internalType": "address",
          "name": "_insuranceCompany",
          "type": "address"
        },
        {
          "internalType": "bool",
          "name": "_isPolicyCashless",
          "type": "bool"
        },
        {
          "internalType": "bool",
          "name": "_isPolicyReimbursement",
          "type": "bool"
        },
        {
          "internalType": "uint256",
          "name": "_sumAssured",
          "type": "uint256"
        },
        {
          "components": [
            {
              "internalType": "uint256",
              "name": "annual",
              "type": "uint256"
            },
            {
              "internalType": "uint256",
              "name": "perInstance",
              "type": "uint256"
            }
          ],
          "internalType": "struct MainStructure.Deductible",
          "name": "_deductible",
          "type": "tuple"
        },
        {
          "components": [
            {
              "internalType": "uint256",
              "name": "fixedCharge",
              "type": "uint256"
            },
            {
              "internalType": "uint256",
              "name": "percentageCharge",
              "type": "uint256"
            }
          ],
          "internalType": "struct MainStructure.Copayment",
          "name": "_copayment",
          "type": "tuple"
        },
        {
          "components": [
            {
              "internalType": "bool",
              "name": "facelift",
              "type": "bool"
            },
            {
              "internalType": "bool",
              "name": "hairTransplant",
              "type": "bool"
            },
            {
              "internalType": "bool",
              "name": "alternativeTherapy",
              "type": "bool"
            }
          ],
          "internalType": "struct MainStructure.NoncoveredExpense",
          "name": "_noncoveredExpense",
          "type": "tuple"
        },
        {
          "components": [
            {
              "internalType": "uint256",
              "name": "roomRentLimit",
              "type": "uint256"
            },
            {
              "internalType": "uint256",
              "name": "surgeryLimit",
              "type": "uint256"
            }
          ],
          "internalType": "struct MainStructure.Sublimit",
          "name": "_sublimit",
          "type": "tuple"
        }
      ],
      "name": "createPolicy",
      "outputs": [],
      "stateMutability": "nonpayable",
      "type": "function"
    },
    {
      "inputs": [
        {
          "internalType": "uint256",
          "name": "_patientId",
          "type": "uint256"
        }
      ],
      "name": "getAllMedicalBillByPatientId",
      "outputs": [
        {
          "components": [
            {
              "internalType": "uint256",
              "name": "billId",
              "type": "uint256"
            },
            {
              "internalType": "uint256",
              "name": "patientId",
              "type": "uint256"
            },
            {
              "internalType": "address",
              "name": "assignedInsuranceCompany",
              "type": "address"
            },
            {
              "internalType": "string",
              "name": "details",
              "type": "string"
            },
            {
              "internalType": "uint256",
              "name": "timestamp",
              "type": "uint256"
            },
            {
              "internalType": "uint256",
              "name": "treatmentDate",
              "type": "uint256"
            },
            {
              "internalType": "uint256",
              "name": "amount",
              "type": "uint256"
            }
          ],
          "internalType": "struct MainStructure.MedicalBill[]",
          "name": "",
          "type": "tuple[]"
        }
      ],
      "stateMutability": "view",
      "type": "function",
      "constant": true
    },
    {
      "inputs": [
        {
          "internalType": "uint256",
          "name": "_hospitalId",
          "type": "uint256"
        }
      ],
      "name": "getAllPatientsByHospital",
      "outputs": [
        {
          "components": [
            {
              "internalType": "uint256",
              "name": "patientId",
              "type": "uint256"
            },
            {
              "internalType": "string",
              "name": "name",
              "type": "string"
            },
            {
              "internalType": "uint256",
              "name": "age",
              "type": "uint256"
            },
            {
              "internalType": "string",
              "name": "otherDetails",
              "type": "string"
            },
            {
              "internalType": "address",
              "name": "patientAddress",
              "type": "address"
            },
            {
              "internalType": "uint256",
              "name": "hospitalId",
              "type": "uint256"
            },
            {
              "internalType": "uint256[]",
              "name": "billIds",
              "type": "uint256[]"
            }
          ],
          "internalType": "struct MainStructure.Patient[]",
          "name": "",
          "type": "tuple[]"
        }
      ],
      "stateMutability": "view",
      "type": "function",
      "constant": true
    },
    {
      "inputs": [
        {
          "internalType": "address",
          "name": "_insuranceCompanyAddress",
          "type": "address"
        }
      ],
      "name": "getPoliciesByInsuranceCompany",
      "outputs": [
        {
          "components": [
            {
              "internalType": "uint256",
              "name": "policyId",
              "type": "uint256"
            },
            {
              "internalType": "string",
              "name": "description",
              "type": "string"
            },
            {
              "internalType": "address",
              "name": "insuranceCompany",
              "type": "address"
            },
            {
              "internalType": "enum MainStructure.PolicyType",
              "name": "policyType",
              "type": "uint8"
            },
            {
              "internalType": "uint256",
              "name": "sumAssured",
              "type": "uint256"
            },
            {
              "components": [
                {
                  "internalType": "uint256",
                  "name": "annual",
                  "type": "uint256"
                },
                {
                  "internalType": "uint256",
                  "name": "perInstance",
                  "type": "uint256"
                }
              ],
              "internalType": "struct MainStructure.Deductible",
              "name": "deductible",
              "type": "tuple"
            },
            {
              "components": [
                {
                  "internalType": "uint256",
                  "name": "fixedCharge",
                  "type": "uint256"
                },
                {
                  "internalType": "uint256",
                  "name": "percentageCharge",
                  "type": "uint256"
                }
              ],
              "internalType": "struct MainStructure.Copayment",
              "name": "copayment",
              "type": "tuple"
            },
            {
              "components": [
                {
                  "internalType": "bool",
                  "name": "facelift",
                  "type": "bool"
                },
                {
                  "internalType": "bool",
                  "name": "hairTransplant",
                  "type": "bool"
                },
                {
                  "internalType": "bool",
                  "name": "alternativeTherapy",
                  "type": "bool"
                }
              ],
              "internalType": "struct MainStructure.NoncoveredExpense",
              "name": "noncoveredExpense",
              "type": "tuple"
            },
            {
              "components": [
                {
                  "internalType": "uint256",
                  "name": "roomRentLimit",
                  "type": "uint256"
                },
                {
                  "internalType": "uint256",
                  "name": "surgeryLimit",
                  "type": "uint256"
                }
              ],
              "internalType": "struct MainStructure.Sublimit",
              "name": "sublimit",
              "type": "tuple"
            }
          ],
          "internalType": "struct MainStructure.Policy[]",
          "name": "",
          "type": "tuple[]"
        }
      ],
      "stateMutability": "view",
      "type": "function",
      "constant": true
    },
    {
      "inputs": [
        {
          "internalType": "address",
          "name": "_insuranceCompanyAddress",
          "type": "address"
        }
      ],
      "name": "getPreauthorizationRequestsByInsuranceCompany",
      "outputs": [
        {
          "components": [
            {
              "internalType": "uint256",
              "name": "patientId",
              "type": "uint256"
            },
            {
              "internalType": "uint256",
              "name": "billId",
              "type": "uint256"
            },
            {
              "internalType": "address",
              "name": "insuranceCompanyAddress",
              "type": "address"
            },
            {
              "internalType": "uint256",
              "name": "policyId",
              "type": "uint256"
            },
            {
              "internalType": "enum Cashless.PreauthorizationStatus",
              "name": "isPreauthorized",
              "type": "uint8"
            },
            {
              "internalType": "uint256",
              "name": "requestTimestamp",
              "type": "uint256"
            },
            {
              "internalType": "uint256",
              "name": "approvedTimestamp",
              "type": "uint256"
            }
          ],
          "internalType": "struct Cashless.Preauthorization[]",
          "name": "",
          "type": "tuple[]"
        }
      ],
      "stateMutability": "view",
      "type": "function",
      "constant": true
    },
    {
      "inputs": [
        {
          "internalType": "uint256",
          "name": "_patientId",
          "type": "uint256"
        },
        {
          "internalType": "uint256",
          "name": "_billId",
          "type": "uint256"
        }
      ],
      "name": "getSingleMedicalBill",
      "outputs": [
        {
          "components": [
            {
              "internalType": "uint256",
              "name": "billId",
              "type": "uint256"
            },
            {
              "internalType": "uint256",
              "name": "patientId",
              "type": "uint256"
            },
            {
              "internalType": "address",
              "name": "assignedInsuranceCompany",
              "type": "address"
            },
            {
              "internalType": "string",
              "name": "details",
              "type": "string"
            },
            {
              "internalType": "uint256",
              "name": "timestamp",
              "type": "uint256"
            },
            {
              "internalType": "uint256",
              "name": "treatmentDate",
              "type": "uint256"
            },
            {
              "internalType": "uint256",
              "name": "amount",
              "type": "uint256"
            }
          ],
          "internalType": "struct MainStructure.MedicalBill",
          "name": "",
          "type": "tuple"
        }
      ],
      "stateMutability": "view",
      "type": "function",
      "constant": true
    },
    {
      "inputs": [],
      "name": "hospitalCount",
      "outputs": [
        {
          "internalType": "uint256",
          "name": "",
          "type": "uint256"
        }
      ],
      "stateMutability": "view",
      "type": "function",
      "constant": true
    },
    {
      "inputs": [],
      "name": "insuranceCompanyCount",
      "outputs": [
        {
          "internalType": "uint256",
          "name": "",
          "type": "uint256"
        }
      ],
      "stateMutability": "view",
      "type": "function",
      "constant": true
    },
    {
      "inputs": [],
      "name": "patientCount",
      "outputs": [
        {
          "internalType": "uint256",
          "name": "",
          "type": "uint256"
        }
      ],
      "stateMutability": "view",
      "type": "function",
      "constant": true
    },
    {
      "inputs": [],
      "name": "policyCount",
      "outputs": [
        {
          "internalType": "uint256",
          "name": "",
          "type": "uint256"
        }
      ],
      "stateMutability": "view",
      "type": "function",
      "constant": true
    },
    {
      "inputs": [],
      "name": "preauthorizationCount",
      "outputs": [
        {
          "internalType": "uint256",
          "name": "",
          "type": "uint256"
        }
      ],
      "stateMutability": "view",
      "type": "function",
      "constant": true
    },
    {
      "inputs": [
        {
          "internalType": "string",
          "name": "_hospitalName",
          "type": "string"
        },
        {
          "internalType": "string[]",
          "name": "_doctorList",
          "type": "string[]"
        }
      ],
      "name": "registerHospital",
      "outputs": [],
      "stateMutability": "nonpayable",
      "type": "function"
    },
    {
      "inputs": [
        {
          "internalType": "uint256[]",
          "name": "_networkHospitals",
          "type": "uint256[]"
        },
        {
          "internalType": "string",
          "name": "_details",
          "type": "string"
        }
      ],
      "name": "registerInsuranceCompany",
      "outputs": [],
      "stateMutability": "nonpayable",
      "type": "function"
    },
    {
      "inputs": [
        {
          "internalType": "uint256",
          "name": "_hospitalId",
          "type": "uint256"
        },
        {
          "internalType": "string",
          "name": "_name",
          "type": "string"
        },
        {
          "internalType": "uint256",
          "name": "_age",
          "type": "uint256"
        },
        {
          "internalType": "string",
          "name": "_otherDetails",
          "type": "string"
        },
        {
          "internalType": "address",
          "name": "_patientAddress",
          "type": "address"
        }
      ],
      "name": "registerPatient",
      "outputs": [],
      "stateMutability": "nonpayable",
      "type": "function"
    },
    {
      "inputs": [],
      "name": "reimbursementClaimCount",
      "outputs": [
        {
          "internalType": "uint256",
          "name": "",
          "type": "uint256"
        }
      ],
      "stateMutability": "view",
      "type": "function",
      "constant": true
    },
    {
      "inputs": [
        {
          "internalType": "uint256",
          "name": "_preauthorizationId",
          "type": "uint256"
        }
      ],
      "name": "rejectPreauthorization",
      "outputs": [],
      "stateMutability": "nonpayable",
      "type": "function"
    },
    {
      "inputs": [
        {
          "internalType": "uint256",
          "name": "_patientId",
          "type": "uint256"
        },
        {
          "internalType": "uint256",
          "name": "_billId",
          "type": "uint256"
        }
      ],
      "name": "requestPreauthorization",
      "outputs": [],
      "stateMutability": "nonpayable",
      "type": "function"
    },
    {
      "inputs": [
        {
          "internalType": "uint256",
          "name": "_claimId",
          "type": "uint256"
        }
      ],
      "name": "settleReimbursementClaim",
      "outputs": [],
      "stateMutability": "nonpayable",
      "type": "function"
    },
    {
      "inputs": [
        {
          "internalType": "uint256",
          "name": "_patientId",
          "type": "uint256"
        },
        {
          "internalType": "uint256",
          "name": "_billId",
          "type": "uint256"
        },
        {
          "internalType": "uint256",
          "name": "_claimAmount",
          "type": "uint256"
        },
        {
          "internalType": "address",
          "name": "_insuranceCompanyAddress",
          "type": "address"
        }
      ],
      "name": "submitReimbursementClaim",
      "outputs": [],
      "stateMutability": "nonpayable",
      "type": "function"
    },
    {
      "inputs": [
        {
          "internalType": "uint256",
          "name": "_patientId",
          "type": "uint256"
        },
        {
          "internalType": "uint256",
          "name": "_billId",
          "type": "uint256"
        },
        {
          "internalType": "uint256",
          "name": "_policyId",
          "type": "uint256"
        },
        {
          "internalType": "uint256",
          "name": "_preauthorizationId",
          "type": "uint256"
        },
        {
          "internalType": "enum PatientManagementSystem.PaymentType",
          "name": "_paymentType",
          "type": "uint8"
        }
      ],
      "name": "calculateFinalAmount",
      "outputs": [
        {
          "internalType": "uint256",
          "name": "",
          "type": "uint256"
        }
      ],
      "stateMutability": "view",
      "type": "function",
      "constant": true
    },
    {
      "inputs": [
        {
          "internalType": "uint256",
          "name": "_patientId",
          "type": "uint256"
        },
        {
          "internalType": "uint256",
          "name": "_billId",
          "type": "uint256"
        },
        {
          "internalType": "uint256",
          "name": "_policyId",
          "type": "uint256"
        },
        {
          "internalType": "uint256",
          "name": "_preauthorizationId",
          "type": "uint256"
        }
      ],
      "name": "calculateFinalClaimAmount",
      "outputs": [
        {
          "internalType": "uint256",
          "name": "",
          "type": "uint256"
        }
      ],
      "stateMutability": "view",
      "type": "function",
      "constant": true
    },
    {
      "inputs": [
        {
          "internalType": "uint256",
          "name": "_patientId",
          "type": "uint256"
        },
        {
          "internalType": "uint256",
          "name": "_billId",
          "type": "uint256"
        },
        {
          "internalType": "uint256",
          "name": "_policyId",
          "type": "uint256"
        }
      ],
      "name": "calculateFinalClaimAmountReimbursement",
      "outputs": [
        {
          "internalType": "uint256",
          "name": "",
          "type": "uint256"
        }
      ],
      "stateMutability": "view",
      "type": "function",
      "constant": true
    }
  ],
  "bytecode": "0x608060405234801561001057600080fd5b50615dc880620000216000396000f3fe608060405234801561001057600080fd5b50600436106101a95760003560e01c8063a5e6e51d116100f9578063ea1b22be11610097578063f535befb11610071578063f535befb146104b6578063f974fdd8146104e6578063fb17ec4514610502578063fc941bbd14610532576101a9565b8063ea1b22be1461043a578063f2b650d01461046a578063f4300c3e1461049a576101a9565b8063b779f051116100d3578063b779f051146103c8578063c44a9277146103e4578063c66533c114610400578063de54d4291461041c576101a9565b8063a5e6e51d14610374578063ac12aaaa14610390578063b5302361146103ac576101a9565b8063350dadb71161016657806358b799461161014057806358b79946146102ec5780638f413b1914610308578063a0303c4114610326578063a074fc4814610344576101a9565b8063350dadb71461028257806341f9fbba146102a05780634c53b9df146102d0576101a9565b806304191793146101ae57806304455419146101cc578063134e24b5146101ea57806315a3f26214610206578063192dfb99146102225780632993b37314610252575b600080fd5b6101b6610562565b6040516101c39190613a42565b60405180910390f35b6101d4610568565b6040516101e19190613a42565b60405180910390f35b61020460048036038101906101ff9190613a9d565b61056e565b005b610220600480360381019061021b9190613cd8565b6106f9565b005b61023c60048036038101906102379190613d75565b610825565b6040516102499190613a42565b60405180910390f35b61026c60048036038101906102679190613e4e565b6108e7565b604051610279919061404d565b60405180910390f35b61028a610b85565b6040516102979190613a42565b60405180910390f35b6102ba60048036038101906102b5919061406f565b610b8b565b6040516102c791906141ca565b60405180910390f35b6102ea60048036038101906102e591906141ec565b610daa565b005b6103066004803603810190610301919061423f565b610e04565b005b610310611083565b60405161031d9190613a42565b60405180910390f35b61032e611089565b60405161033b9190613a42565b60405180910390f35b61035e600480360381019061035991906142c2565b61108f565b60405161036b9190613a42565b60405180910390f35b61038e60048036038101906103899190614329565b611477565b005b6103aa60048036038101906103a591906144bd565b6116d0565b005b6103c660048036038101906103c19190613a9d565b6117fb565b005b6103e260048036038101906103dd919061406f565b6119a3565b005b6103fe60048036038101906103f991906146c6565b611bbf565b005b61041a60048036038101906104159190613a9d565b611f03565b005b6104246120c7565b6040516104319190613a42565b60405180910390f35b610454600480360381019061044f9190613a9d565b6120cd565b60405161046191906149c8565b60405180910390f35b610484600480360381019061047f9190613a9d565b612451565b6040516104919190613a42565b60405180910390f35b6104b460048036038101906104af91906149ea565b612469565b005b6104d060048036038101906104cb9190613e4e565b61266e565b6040516104dd9190614ceb565b60405180910390f35b61050060048036038101906104fb9190614d0d565b612a5e565b005b61051c60048036038101906105179190614d74565b612ed3565b6040516105299190613a42565b60405180910390f35b61054c60048036038101906105479190613a9d565b613154565b6040516105599190614f25565b60405180910390f35b600b5481565b60085481565b600d600082815260200190815260200160002060050160019054906101000a900473ffffffffffffffffffffffffffffffffffffffff168073ffffffffffffffffffffffffffffffffffffffff163373ffffffffffffffffffffffffffffffffffffffff1614610613576040517f08c379a000000000000000000000000000000000000000000000000000000000815260040161060a90614fca565b60405180910390fd5b600d600083815260200190815260200160002060050160009054906101000a900460ff1615610677576040517f08c379a000000000000000000000000000000000000000000000000000000000815260040161066e90615036565b60405180910390fd5b6000600d6000848152602001908152602001600020905060018160050160006101000a81548160ff0219169083151502179055507f97975cfa1abf3cca6a70f79bc9433ba2a6064ca345ffae03892cefbc37795aac838260010154836002015484600301546040516106ec9493929190615056565b60405180910390a1505050565b6008600081548092919061070c906150ca565b9190505550604051806080016040528060085481526020018381526020018281526020013373ffffffffffffffffffffffffffffffffffffffff168152506001600060085481526020019081526020016000206000820151816000015560208201518160010190805190602001906107859291906136f6565b50604082015181600201908161079b919061531e565b5060608201518160030160006101000a81548173ffffffffffffffffffffffffffffffffffffffff021916908373ffffffffffffffffffffffffffffffffffffffff1602179055509050507fe77c8f37e34b74b41e1166c293f6133d1504890d12bb06d801af627515495cf36008548360405161081992919061545f565b60405180910390a15050565b600080600281111561083a57610839613ec5565b5b82600281111561084d5761084c613ec5565b5b036108655761085e8686868661108f565b90506108de565b6001600281111561087957610878613ec5565b5b82600281111561088c5761088b613ec5565b5b036108a35761089c868686612ed3565b90506108de565b6040517f08c379a00000000000000000000000000000000000000000000000000000000081526004016108d5906154db565b60405180910390fd5b95945050505050565b6060600080600190505b600b548111610985578373ffffffffffffffffffffffffffffffffffffffff16600c600083815260200190815260200160002060020160009054906101000a900473ffffffffffffffffffffffffffffffffffffffff1673ffffffffffffffffffffffffffffffffffffffff160361097257818061096e906150ca565b9250505b808061097d906150ca565b9150506108f1565b5060008167ffffffffffffffff8111156109a2576109a1613ae0565b5b6040519080825280602002602001820160405280156109db57816020015b6109c8613743565b8152602001906001900390816109c05790505b509050600080600190505b600b548111610b79578573ffffffffffffffffffffffffffffffffffffffff16600c600083815260200190815260200160002060020160009054906101000a900473ffffffffffffffffffffffffffffffffffffffff1673ffffffffffffffffffffffffffffffffffffffff1603610b6657600c60008281526020019081526020016000206040518060e001604052908160008201548152602001600182015481526020016002820160009054906101000a900473ffffffffffffffffffffffffffffffffffffffff1673ffffffffffffffffffffffffffffffffffffffff1673ffffffffffffffffffffffffffffffffffffffff168152602001600382015481526020016004820160009054906101000a900460ff166002811115610b0f57610b0e613ec5565b5b6002811115610b2157610b20613ec5565b5b815260200160058201548152602001600682015481525050838381518110610b4c57610b4b6154fb565b5b60200260200101819052508180610b62906150ca565b9250505b8080610b71906150ca565b9150506109e6565b50819350505050919050565b60075481565b610b936137a8565b600083118015610ba55750600a548311155b610be4576040517f08c379a0000000000000000000000000000000000000000000000000000000008152600401610bdb90615576565b60405180910390fd5b600082118015610c1a57508160056000858152602001908152602001600020600084815260200190815260200160002060000154145b610c59576040517f08c379a0000000000000000000000000000000000000000000000000000000008152600401610c50906155e2565b60405180910390fd5b6005600084815260200190815260200160002060008381526020019081526020016000206040518060e001604052908160008201548152602001600182015481526020016002820160009054906101000a900473ffffffffffffffffffffffffffffffffffffffff1673ffffffffffffffffffffffffffffffffffffffff1673ffffffffffffffffffffffffffffffffffffffff168152602001600382018054610d0290615141565b80601f0160208091040260200160405190810160405280929190818152602001828054610d2e90615141565b8015610d7b5780601f10610d5057610100808354040283529160200191610d7b565b820191906000526020600020905b815481529060010190602001808311610d5e57829003601f168201915b505050505081526020016004820154815260200160058201548152602001600682015481525050905092915050565b806006600085815260200190815260200160002060008473ffffffffffffffffffffffffffffffffffffffff1673ffffffffffffffffffffffffffffffffffffffff16815260200190815260200160002081905550505050565b8060008082815260200190815260200160002060010160009054906101000a900473ffffffffffffffffffffffffffffffffffffffff1673ffffffffffffffffffffffffffffffffffffffff163373ffffffffffffffffffffffffffffffffffffffff1614610ea8576040517f08c379a0000000000000000000000000000000000000000000000000000000008152600401610e9f90615674565b60405180910390fd5b600060016004600088815260200190815260200160002054610eca9190615694565b9050600460008781526020019081526020016000206000815480929190610ef0906150ca565b9190505550600360008781526020019081526020016000206006018190806001815401808255809150506001900390600052602060002001600090919091909150556040518060e00160405280878152602001828152602001600073ffffffffffffffffffffffffffffffffffffffff1681526020018681526020014281526020016201518042610f8191906156f7565b815260200185815250600560008881526020019081526020016000206000838152602001908152602001600020600082015181600001556020820151816001015560408201518160020160006101000a81548173ffffffffffffffffffffffffffffffffffffffff021916908373ffffffffffffffffffffffffffffffffffffffff160217905550606082015181600301908161101e919061531e565b506080820151816004015560a0820151816005015560c082015181600601559050507f6746258bd4dc3961de3bd0fef53a987639aae292ced878d1044663960b5b3e5981878660405161107393929190615728565b60405180910390a1505050505050565b600e5481565b600a5481565b6000816000600c60008381526020019081526020016000209050600160028111156110bd576110bc613ec5565b5b8160040160009054906101000a900460ff1660028111156110e1576110e0613ec5565b5b14611121576040517f08c379a0000000000000000000000000000000000000000000000000000000008152600401611118906157ab565b60405180910390fd5b600060026000836003015481526020019081526020016000209050600060028111156111505761114f613ec5565b5b8160020160149054906101000a900460ff16600281111561117457611173613ec5565b5b14806111b4575060028081111561118e5761118d613ec5565b5b8160020160149054906101000a900460ff1660028111156111b2576111b1613ec5565b5b145b6111f3576040517f08c379a00000000000000000000000000000000000000000000000000000000081526004016111ea9061583d565b60405180910390fd5b6000600560008a8152602001908152602001600020600089815260200190815260200160002090506000816006015490506000806112318a84613414565b9050808261123f9190615694565b9150600061124d8b85613490565b90508084111561126a5780836112639190615694565b9250611278565b60009850505050505061146c565b6000600367ffffffffffffffff81111561129557611294613ae0565b5b6040519080825280602002602001820160405280156112c857816020015b60608152602001906001900390816112b35790505b5090506040518060400160405280600881526020017f666163656c69667400000000000000000000000000000000000000000000000081525081600081518110611315576113146154fb565b5b60200260200101819052506040518060400160405280600e81526020017f686169725472616e73706c616e740000000000000000000000000000000000008152508160018151811061136a576113696154fb565b5b60200260200101819052506040518060400160405280601281526020017f616c7465726e6174697665546865726170790000000000000000000000000000815250816002815181106113bf576113be6154fb565b5b602002602001018190525060005b8151811015611422576113fa8d8383815181106113ed576113ec6154fb565b5b60200260200101516134e3565b1561140f5760009a505050505050505061146c565b808061141a906150ca565b9150506113cd565b506000806114328e60008061363c565b91509150811561144f5780866114489190615694565b9550611460565b60009b50505050505050505061146c565b859b5050505050505050505b505050949350505050565b8460008082815260200190815260200160002060010160009054906101000a900473ffffffffffffffffffffffffffffffffffffffff1673ffffffffffffffffffffffffffffffffffffffff163373ffffffffffffffffffffffffffffffffffffffff161461151b576040517f08c379a000000000000000000000000000000000000000000000000000000000815260040161151290615674565b60405180910390fd5b600a600081548092919061152e906150ca565b91905055506040518060e00160405280600a5481526020018681526020018581526020018481526020018373ffffffffffffffffffffffffffffffffffffffff168152602001878152602001600067ffffffffffffffff81111561159557611594613ae0565b5b6040519080825280602002602001820160405280156115c35781602001602082028036833780820191505090505b5081525060036000600a5481526020019081526020016000206000820151816000015560208201518160010190816115fb919061531e565b5060408201518160020155606082015181600301908161161b919061531e565b5060808201518160040160006101000a81548173ffffffffffffffffffffffffffffffffffffffff021916908373ffffffffffffffffffffffffffffffffffffffff16021790555060a0820151816005015560c08201518160060190805190602001906116899291906136f6565b509050507f6c19f22d83a1ce20713b4c747e3a78c3036498ced71d283c697d587033783bd0600a54866040516116c0929190615896565b60405180910390a1505050505050565b600760008154809291906116e3906150ca565b9190505550604051806080016040528060075481526020013373ffffffffffffffffffffffffffffffffffffffff1681526020018381526020018281525060008060075481526020019081526020016000206000820151816000015560208201518160010160006101000a81548173ffffffffffffffffffffffffffffffffffffffff021916908373ffffffffffffffffffffffffffffffffffffffff160217905550604082015181600201908161179b919061531e565b5060608201518160030190805190602001906117b89291906137fb565b509050507fa1fd3231f7912e48ffbf52db08250262416750cd0c9618106dd67eee527a1f02600754336040516117ef9291906158d5565b60405180910390a15050565b600c600082815260200190815260200160002060020160009054906101000a900473ffffffffffffffffffffffffffffffffffffffff168073ffffffffffffffffffffffffffffffffffffffff163373ffffffffffffffffffffffffffffffffffffffff16146118a0576040517f08c379a000000000000000000000000000000000000000000000000000000000815260040161189790614fca565b60405180910390fd5b6002808111156118b3576118b2613ec5565b5b600c600084815260200190815260200160002060040160009054906101000a900460ff1660028111156118e9576118e8613ec5565b5b03611929576040517f08c379a00000000000000000000000000000000000000000000000000000000081526004016119209061594a565b60405180910390fd5b6002600c600084815260200190815260200160002060040160006101000a81548160ff0219169083600281111561196357611962613ec5565b5b02179055507f56d74882d0df5b525123b8a0a5b1b16cd6918f15897439e113fb15bed337b7e9826040516119979190613a42565b60405180910390a15050565b600b60008154809291906119b6906150ca565b9190505550600060056000848152602001908152602001600020600083815260200190815260200160002060020160009054906101000a900473ffffffffffffffffffffffffffffffffffffffff16905060006006600085815260200190815260200160002060008373ffffffffffffffffffffffffffffffffffffffff1673ffffffffffffffffffffffffffffffffffffffff1681526020019081526020016000205490506040518060e001604052808581526020018481526020018373ffffffffffffffffffffffffffffffffffffffff16815260200182815260200160006002811115611aa957611aa8613ec5565b5b81526020014281526020016000815250600c6000600b548152602001908152602001600020600082015181600001556020820151816001015560408201518160020160006101000a81548173ffffffffffffffffffffffffffffffffffffffff021916908373ffffffffffffffffffffffffffffffffffffffff1602179055506060820151816003015560808201518160040160006101000a81548160ff02191690836002811115611b5e57611b5d613ec5565b5b021790555060a0820151816005015560c082015181600601559050507fc92afee2df9da8514d602cb137349226cae98de592c5ae8199917bfdea9a1e24600b54858386604051611bb19493929190615056565b60405180910390a150505050565b878073ffffffffffffffffffffffffffffffffffffffff163373ffffffffffffffffffffffffffffffffffffffff1614611c2e576040517f08c379a0000000000000000000000000000000000000000000000000000000008152600401611c2590614fca565b60405180910390fd5b60096000815480929190611c41906150ca565b91905055506000801515891515148015611c5f575060001515881515145b15611c9f576040517f08c379a0000000000000000000000000000000000000000000000000000000008152600401611c96906159b6565b60405180910390fd5b6001151589151503611cb45760009050611ccf565b6001151588151503611cc95760019050611cce565b600290505b5b60405180610120016040528060095481526020018c81526020018b73ffffffffffffffffffffffffffffffffffffffff168152602001826002811115611d1857611d17613ec5565b5b815260200188815260200187815260200186815260200185815260200184815250600260006009548152602001908152602001600020600082015181600001556020820151816001019081611d6d919061531e565b5060408201518160020160006101000a81548173ffffffffffffffffffffffffffffffffffffffff021916908373ffffffffffffffffffffffffffffffffffffffff16021790555060608201518160020160146101000a81548160ff02191690836002811115611de057611ddf613ec5565b5b02179055506080820151816003015560a0820151816004016000820151816000015560208201518160010155505060c0820151816006016000820151816000015560208201518160010155505060e08201518160080160008201518160000160006101000a81548160ff02191690831515021790555060208201518160000160016101000a81548160ff02191690831515021790555060408201518160000160026101000a81548160ff021916908315150217905550505061010082015181600901600082015181600001556020820151816001015550509050507f80968e0cf0f9fbad1f441d6bcbc63de0fe2c2a21dcbd37b22b46e61c7695031f6009548c604051611eee929190615896565b60405180910390a15050505050505050505050565b600c600082815260200190815260200160002060020160009054906101000a900473ffffffffffffffffffffffffffffffffffffffff168073ffffffffffffffffffffffffffffffffffffffff163373ffffffffffffffffffffffffffffffffffffffff1614611fa8576040517f08c379a0000000000000000000000000000000000000000000000000000000008152600401611f9f90614fca565b60405180910390fd5b60016002811115611fbc57611fbb613ec5565b5b600c600084815260200190815260200160002060040160009054906101000a900460ff166002811115611ff257611ff1613ec5565b5b03612032576040517f08c379a000000000000000000000000000000000000000000000000000000000815260040161202990615a48565b60405180910390fd5b6001600c600084815260200190815260200160002060040160006101000a81548160ff0219169083600281111561206c5761206b613ec5565b5b021790555042600c6000848152602001908152602001600020600601819055507f109612b3153463a13d8c2840918ef74c26d7d0cae1746f6f5735a8e7e1f8bbb7826040516120bb9190613a42565b60405180910390a15050565b60095481565b60606000821180156120e157506007548211155b612120576040517f08c379a000000000000000000000000000000000000000000000000000000000815260040161211790615ab4565b60405180910390fd5b600080600190505b600a548111612170578360036000838152602001908152602001600020600501540361215d578180612159906150ca565b9250505b8080612168906150ca565b915050612128565b5060008167ffffffffffffffff81111561218d5761218c613ae0565b5b6040519080825280602002602001820160405280156121c657816020015b6121b3613854565b8152602001906001900390816121ab5790505b509050600080600190505b600a548111612445578560036000838152602001908152602001600020600501540361243257600360008281526020019081526020016000206040518060e00160405290816000820154815260200160018201805461222f90615141565b80601f016020809104026020016040519081016040528092919081815260200182805461225b90615141565b80156122a85780601f1061227d576101008083540402835291602001916122a8565b820191906000526020600020905b81548152906001019060200180831161228b57829003601f168201915b50505050508152602001600282015481526020016003820180546122cb90615141565b80601f01602080910402602001604051908101604052809291908181526020018280546122f790615141565b80156123445780601f1061231957610100808354040283529160200191612344565b820191906000526020600020905b81548152906001019060200180831161232757829003601f168201915b505050505081526020016004820160009054906101000a900473ffffffffffffffffffffffffffffffffffffffff1673ffffffffffffffffffffffffffffffffffffffff1673ffffffffffffffffffffffffffffffffffffffff16815260200160058201548152602001600682018054806020026020016040519081016040528092919081815260200182805480156123fc57602002820191906000526020600020905b8154815260200190600101908083116123e8575b505050505081525050838381518110612418576124176154fb565b5b6020026020010181905250818061242e906150ca565b9250505b808061243d906150ca565b9150506121d1565b50819350505050919050565b60046020528060005260406000206000915090505481565b826003600082815260200190815260200160002060040160009054906101000a900473ffffffffffffffffffffffffffffffffffffffff1673ffffffffffffffffffffffffffffffffffffffff163373ffffffffffffffffffffffffffffffffffffffff161461250e576040517f08c379a000000000000000000000000000000000000000000000000000000000815260040161250590615b46565b60405180910390fd5b600073ffffffffffffffffffffffffffffffffffffffff1660056000868152602001908152602001600020600085815260200190815260200160002060020160009054906101000a900473ffffffffffffffffffffffffffffffffffffffff1673ffffffffffffffffffffffffffffffffffffffff160361262d578160056000868152602001908152602001600020600085815260200190815260200160002060020160006101000a81548173ffffffffffffffffffffffffffffffffffffffff021916908373ffffffffffffffffffffffffffffffffffffffff1602179055507fe8dfa1000a377c1be6687e0c2f30a28b8ab10bc929a3272894b169f3385dea8b84836040516126209291906158d5565b60405180910390a1612668565b6040517f08c379a000000000000000000000000000000000000000000000000000000000815260040161265f90615bd8565b60405180910390fd5b50505050565b6060600080600190505b600954811161270c578373ffffffffffffffffffffffffffffffffffffffff166002600083815260200190815260200160002060020160009054906101000a900473ffffffffffffffffffffffffffffffffffffffff1673ffffffffffffffffffffffffffffffffffffffff16036126f95781806126f5906150ca565b9250505b8080612704906150ca565b915050612678565b5060008167ffffffffffffffff81111561272957612728613ae0565b5b60405190808252806020026020018201604052801561276257816020015b61274f6138a7565b8152602001906001900390816127475790505b509050600080600190505b6009548111612a52578573ffffffffffffffffffffffffffffffffffffffff166002600083815260200190815260200160002060020160009054906101000a900473ffffffffffffffffffffffffffffffffffffffff1673ffffffffffffffffffffffffffffffffffffffff1603612a3f5760026000828152602001908152602001600020604051806101200160405290816000820154815260200160018201805461281890615141565b80601f016020809104026020016040519081016040528092919081815260200182805461284490615141565b80156128915780601f1061286657610100808354040283529160200191612891565b820191906000526020600020905b81548152906001019060200180831161287457829003601f168201915b505050505081526020016002820160009054906101000a900473ffffffffffffffffffffffffffffffffffffffff1673ffffffffffffffffffffffffffffffffffffffff1673ffffffffffffffffffffffffffffffffffffffff1681526020016002820160149054906101000a900460ff16600281111561291557612914613ec5565b5b600281111561292757612926613ec5565b5b8152602001600382015481526020016004820160405180604001604052908160008201548152602001600182015481525050815260200160068201604051806040016040529081600082015481526020016001820154815250508152602001600882016040518060600160405290816000820160009054906101000a900460ff161515151581526020016000820160019054906101000a900460ff161515151581526020016000820160029054906101000a900460ff1615151515815250508152602001600982016040518060400160405290816000820154815260200160018201548152505081525050838381518110612a2557612a246154fb565b5b60200260200101819052508180612a3b906150ca565b9250505b8080612a4a906150ca565b91505061276d565b50819350505050919050565b836003600082815260200190815260200160002060040160009054906101000a900473ffffffffffffffffffffffffffffffffffffffff1673ffffffffffffffffffffffffffffffffffffffff163373ffffffffffffffffffffffffffffffffffffffff1614612b03576040517f08c379a0000000000000000000000000000000000000000000000000000000008152600401612afa90615b46565b60405180910390fd5b60016002811115612b1757612b16613ec5565b5b60026000600660008981526020019081526020016000206000600560008b815260200190815260200160002060008a815260200190815260200160002060020160009054906101000a900473ffffffffffffffffffffffffffffffffffffffff1673ffffffffffffffffffffffffffffffffffffffff1673ffffffffffffffffffffffffffffffffffffffff16815260200190815260200160002054815260200190815260200160002060020160149054906101000a900460ff166002811115612be457612be3613ec5565b5b1480612ccd5750600280811115612bfe57612bfd613ec5565b5b60026000600660008981526020019081526020016000206000600560008b815260200190815260200160002060008a815260200190815260200160002060020160009054906101000a900473ffffffffffffffffffffffffffffffffffffffff1673ffffffffffffffffffffffffffffffffffffffff1673ffffffffffffffffffffffffffffffffffffffff16815260200190815260200160002054815260200190815260200160002060020160149054906101000a900460ff166002811115612ccb57612cca613ec5565b5b145b612d0c576040517f08c379a0000000000000000000000000000000000000000000000000000000008152600401612d0390615c6a565b60405180910390fd5b60056000868152602001908152602001600020600085815260200190815260200160002060060154831115612d76576040517f08c379a0000000000000000000000000000000000000000000000000000000008152600401612d6d90615cfc565b60405180910390fd5b600e6000815480929190612d89906150ca565b91905055506040518060e00160405280600e5481526020018681526020018581526020018481526020014281526020016000151581526020018373ffffffffffffffffffffffffffffffffffffffff16815250600d6000600e548152602001908152602001600020600082015181600001556020820151816001015560408201518160020155606082015181600301556080820151816004015560a08201518160050160006101000a81548160ff02191690831515021790555060c08201518160050160016101000a81548173ffffffffffffffffffffffffffffffffffffffff021916908373ffffffffffffffffffffffffffffffffffffffff1602179055509050507fb7448a3b47b0818412226c6ea5ac14898a5b645d67fcaeba16c897f88a5dd191600e54868686604051612ec49493929190615056565b60405180910390a15050505050565b6000806005600086815260200190815260200160002060008581526020019081526020016000209050600081600601549050600080612f128684613414565b90508082612f209190615694565b91506000612f2e8785613490565b905080841115612f4b578083612f449190615694565b9250612f59565b60009550505050505061314d565b6000600367ffffffffffffffff811115612f7657612f75613ae0565b5b604051908082528060200260200182016040528015612fa957816020015b6060815260200190600190039081612f945790505b5090506040518060400160405280600881526020017f666163656c69667400000000000000000000000000000000000000000000000081525081600081518110612ff657612ff56154fb565b5b60200260200101819052506040518060400160405280600e81526020017f686169725472616e73706c616e740000000000000000000000000000000000008152508160018151811061304b5761304a6154fb565b5b60200260200101819052506040518060400160405280601281526020017f616c7465726e6174697665546865726170790000000000000000000000000000815250816002815181106130a05761309f6154fb565b5b602002602001018190525060005b8151811015613103576130db898383815181106130ce576130cd6154fb565b5b60200260200101516134e3565b156130f057600097505050505050505061314d565b80806130fb906150ca565b9150506130ae565b506000806131138a60008061363c565b9150915081156131305780866131299190615694565b9550613141565b60009850505050505050505061314d565b85985050505050505050505b9392505050565b60606000821180156131685750600a548211155b6131a7576040517f08c379a000000000000000000000000000000000000000000000000000000000815260040161319e90615576565b60405180910390fd5b60006003600084815260200190815260200160002060060180548060200260200160405190810160405280929190818152602001828054801561320957602002820191906000526020600020905b8154815260200190600101908083116131f5575b505050505090506000815167ffffffffffffffff81111561322d5761322c613ae0565b5b60405190808252806020026020018201604052801561326657816020015b6132536137a8565b81526020019060019003908161324b5790505b50905060005b82518110156134095760056000868152602001908152602001600020600084838151811061329d5761329c6154fb565b5b602002602001015181526020019081526020016000206040518060e001604052908160008201548152602001600182015481526020016002820160009054906101000a900473ffffffffffffffffffffffffffffffffffffffff1673ffffffffffffffffffffffffffffffffffffffff1673ffffffffffffffffffffffffffffffffffffffff16815260200160038201805461333890615141565b80601f016020809104026020016040519081016040528092919081815260200182805461336490615141565b80156133b15780601f10613386576101008083540402835291602001916133b1565b820191906000526020600020905b81548152906001019060200180831161339457829003601f168201915b5050505050815260200160048201548152602001600582015481526020016006820154815250508282815181106133eb576133ea6154fb565b5b60200260200101819052508080613401906150ca565b91505061326c565b508092505050919050565b6000806002600085815260200190815260200160002090506000808260060160000154111561344857816006016000015490505b60008260060160010154111561348557606482600601600101548561346d9190615d1c565b61347791906156f7565b816134829190615694565b90505b809250505092915050565b6000806002600085815260200190815260200160002090506000816004016000015484106134c357816004016000015490505b8160040160010154816134d69190615694565b9050809250505092915050565b6000806002600085815260200190815260200160002090506040518060400160405280600881526020017f666163656c69667400000000000000000000000000000000000000000000000081525080519060200120838051906020012003613562578060080160000160009054906101000a900460ff16915050613636565b6040518060400160405280600e81526020017f686169725472616e73706c616e74000000000000000000000000000000000000815250805190602001208380519060200120036135c9578060080160000160019054906101000a900460ff16915050613636565b6040518060400160405280601281526020017f616c7465726e617469766554686572617079000000000000000000000000000081525080519060200120838051906020012003613630578060080160000160029054906101000a900460ff16915050613636565b60009150505b92915050565b6000806000600260008781526020019081526020016000209050600081600901600001548611806136735750816009016001015485115b15613686576000809350935050506136ee565b816009016000015486116136b5578582600901600001546136a79190615d5e565b816136b29190615694565b90505b816009016001015485116136e4578482600901600101546136d69190615d5e565b816136e19190615694565b90505b6001819350935050505b935093915050565b828054828255906000526020600020908101928215613732579160200282015b82811115613731578251825591602001919060010190613716565b5b50905061373f9190613933565b5090565b6040518060e001604052806000815260200160008152602001600073ffffffffffffffffffffffffffffffffffffffff168152602001600081526020016000600281111561379457613793613ec5565b5b815260200160008152602001600081525090565b6040518060e001604052806000815260200160008152602001600073ffffffffffffffffffffffffffffffffffffffff168152602001606081526020016000815260200160008152602001600081525090565b828054828255906000526020600020908101928215613843579160200282015b82811115613842578251829081613832919061531e565b509160200191906001019061381b565b5b5090506138509190613950565b5090565b6040518060e0016040528060008152602001606081526020016000815260200160608152602001600073ffffffffffffffffffffffffffffffffffffffff16815260200160008152602001606081525090565b6040518061012001604052806000815260200160608152602001600073ffffffffffffffffffffffffffffffffffffffff168152602001600060028111156138f2576138f1613ec5565b5b815260200160008152602001613906613974565b815260200161391361398e565b81526020016139206139a8565b815260200161392d6139cf565b81525090565b5b8082111561394c576000816000905550600101613934565b5090565b5b80821115613970576000818161396791906139e9565b50600101613951565b5090565b604051806040016040528060008152602001600081525090565b604051806040016040528060008152602001600081525090565b60405180606001604052806000151581526020016000151581526020016000151581525090565b604051806040016040528060008152602001600081525090565b5080546139f590615141565b6000825580601f10613a075750613a26565b601f016020900490600052602060002090810190613a259190613933565b5b50565b6000819050919050565b613a3c81613a29565b82525050565b6000602082019050613a576000830184613a33565b92915050565b6000604051905090565b600080fd5b600080fd5b613a7a81613a29565b8114613a8557600080fd5b50565b600081359050613a9781613a71565b92915050565b600060208284031215613ab357613ab2613a67565b5b6000613ac184828501613a88565b91505092915050565b600080fd5b6000601f19601f8301169050919050565b7f4e487b7100000000000000000000000000000000000000000000000000000000600052604160045260246000fd5b613b1882613acf565b810181811067ffffffffffffffff82111715613b3757613b36613ae0565b5b80604052505050565b6000613b4a613a5d565b9050613b568282613b0f565b919050565b600067ffffffffffffffff821115613b7657613b75613ae0565b5b602082029050602081019050919050565b600080fd5b6000613b9f613b9a84613b5b565b613b40565b90508083825260208201905060208402830185811115613bc257613bc1613b87565b5b835b81811015613beb5780613bd78882613a88565b845260208401935050602081019050613bc4565b5050509392505050565b600082601f830112613c0a57613c09613aca565b5b8135613c1a848260208601613b8c565b91505092915050565b600080fd5b600067ffffffffffffffff821115613c4357613c42613ae0565b5b613c4c82613acf565b9050602081019050919050565b82818337600083830152505050565b6000613c7b613c7684613c28565b613b40565b905082815260208101848484011115613c9757613c96613c23565b5b613ca2848285613c59565b509392505050565b600082601f830112613cbf57613cbe613aca565b5b8135613ccf848260208601613c68565b91505092915050565b60008060408385031215613cef57613cee613a67565b5b600083013567ffffffffffffffff811115613d0d57613d0c613a6c565b5b613d1985828601613bf5565b925050602083013567ffffffffffffffff811115613d3a57613d39613a6c565b5b613d4685828601613caa565b9150509250929050565b60038110613d5d57600080fd5b50565b600081359050613d6f81613d50565b92915050565b600080600080600060a08688031215613d9157613d90613a67565b5b6000613d9f88828901613a88565b9550506020613db088828901613a88565b9450506040613dc188828901613a88565b9350506060613dd288828901613a88565b9250506080613de388828901613d60565b9150509295509295909350565b600073ffffffffffffffffffffffffffffffffffffffff82169050919050565b6000613e1b82613df0565b9050919050565b613e2b81613e10565b8114613e3657600080fd5b50565b600081359050613e4881613e22565b92915050565b600060208284031215613e6457613e63613a67565b5b6000613e7284828501613e39565b91505092915050565b600081519050919050565b600082825260208201905092915050565b6000819050602082019050919050565b613eb081613a29565b82525050565b613ebf81613e10565b82525050565b7f4e487b7100000000000000000000000000000000000000000000000000000000600052602160045260246000fd5b60038110613f0557613f04613ec5565b5b50565b6000819050613f1682613ef4565b919050565b6000613f2682613f08565b9050919050565b613f3681613f1b565b82525050565b60e082016000820151613f526000850182613ea7565b506020820151613f656020850182613ea7565b506040820151613f786040850182613eb6565b506060820151613f8b6060850182613ea7565b506080820151613f9e6080850182613f2d565b5060a0820151613fb160a0850182613ea7565b5060c0820151613fc460c0850182613ea7565b50505050565b6000613fd68383613f3c565b60e08301905092915050565b6000602082019050919050565b6000613ffa82613e7b565b6140048185613e86565b935061400f83613e97565b8060005b838110156140405781516140278882613fca565b975061403283613fe2565b925050600181019050614013565b5085935050505092915050565b600060208201905081810360008301526140678184613fef565b905092915050565b6000806040838503121561408657614085613a67565b5b600061409485828601613a88565b92505060206140a585828601613a88565b9150509250929050565b600081519050919050565b600082825260208201905092915050565b60005b838110156140e95780820151818401526020810190506140ce565b60008484015250505050565b6000614100826140af565b61410a81856140ba565b935061411a8185602086016140cb565b61412381613acf565b840191505092915050565b600060e0830160008301516141466000860182613ea7565b5060208301516141596020860182613ea7565b50604083015161416c6040860182613eb6565b506060830151848203606086015261418482826140f5565b91505060808301516141996080860182613ea7565b5060a08301516141ac60a0860182613ea7565b5060c08301516141bf60c0860182613ea7565b508091505092915050565b600060208201905081810360008301526141e4818461412e565b905092915050565b60008060006060848603121561420557614204613a67565b5b600061421386828701613a88565b935050602061422486828701613e39565b925050604061423586828701613a88565b9150509250925092565b6000806000806080858703121561425957614258613a67565b5b600061426787828801613a88565b945050602085013567ffffffffffffffff81111561428857614287613a6c565b5b61429487828801613caa565b93505060406142a587828801613a88565b92505060606142b687828801613a88565b91505092959194509250565b600080600080608085870312156142dc576142db613a67565b5b60006142ea87828801613a88565b94505060206142fb87828801613a88565b935050604061430c87828801613a88565b925050606061431d87828801613a88565b91505092959194509250565b600080600080600060a0868803121561434557614344613a67565b5b600061435388828901613a88565b955050602086013567ffffffffffffffff81111561437457614373613a6c565b5b61438088828901613caa565b945050604061439188828901613a88565b935050606086013567ffffffffffffffff8111156143b2576143b1613a6c565b5b6143be88828901613caa565b92505060806143cf88828901613e39565b9150509295509295909350565b600067ffffffffffffffff8211156143f7576143f6613ae0565b5b602082029050602081019050919050565b600061441b614416846143dc565b613b40565b9050808382526020820190506020840283018581111561443e5761443d613b87565b5b835b8181101561448557803567ffffffffffffffff81111561446357614462613aca565b5b8086016144708982613caa565b85526020850194505050602081019050614440565b5050509392505050565b600082601f8301126144a4576144a3613aca565b5b81356144b4848260208601614408565b91505092915050565b600080604083850312156144d4576144d3613a67565b5b600083013567ffffffffffffffff8111156144f2576144f1613a6c565b5b6144fe85828601613caa565b925050602083013567ffffffffffffffff81111561451f5761451e613a6c565b5b61452b8582860161448f565b9150509250929050565b60008115159050919050565b61454a81614535565b811461455557600080fd5b50565b60008135905061456781614541565b92915050565b600080fd5b6000604082840312156145885761458761456d565b5b6145926040613b40565b905060006145a284828501613a88565b60008301525060206145b684828501613a88565b60208301525092915050565b6000604082840312156145d8576145d761456d565b5b6145e26040613b40565b905060006145f284828501613a88565b600083015250602061460684828501613a88565b60208301525092915050565b6000606082840312156146285761462761456d565b5b6146326060613b40565b9050600061464284828501614558565b600083015250602061465684828501614558565b602083015250604061466a84828501614558565b60408301525092915050565b60006040828403121561468c5761468b61456d565b5b6146966040613b40565b905060006146a684828501613a88565b60008301525060206146ba84828501613a88565b60208301525092915050565b60008060008060008060008060006101c08a8c0312156146e9576146e8613a67565b5b60008a013567ffffffffffffffff81111561470757614706613a6c565b5b6147138c828d01613caa565b99505060206147248c828d01613e39565b98505060406147358c828d01614558565b97505060606147468c828d01614558565b96505060806147578c828d01613a88565b95505060a06147688c828d01614572565b94505060e06147798c828d016145c2565b93505061012061478b8c828d01614612565b92505061018061479d8c828d01614676565b9150509295985092959850929598565b600081519050919050565b600082825260208201905092915050565b6000819050602082019050919050565b600081519050919050565b600082825260208201905092915050565b6000819050602082019050919050565b60006148118383613ea7565b60208301905092915050565b6000602082019050919050565b6000614835826147d9565b61483f81856147e4565b935061484a836147f5565b8060005b8381101561487b5781516148628882614805565b975061486d8361481d565b92505060018101905061484e565b5085935050505092915050565b600060e0830160008301516148a06000860182613ea7565b50602083015184820360208601526148b882826140f5565b91505060408301516148cd6040860182613ea7565b50606083015184820360608601526148e582826140f5565b91505060808301516148fa6080860182613eb6565b5060a083015161490d60a0860182613ea7565b5060c083015184820360c0860152614925828261482a565b9150508091505092915050565b600061493e8383614888565b905092915050565b6000602082019050919050565b600061495e826147ad565b61496881856147b8565b93508360208202850161497a856147c9565b8060005b858110156149b657848403895281516149978582614932565b94506149a283614946565b925060208a0199505060018101905061497e565b50829750879550505050505092915050565b600060208201905081810360008301526149e28184614953565b905092915050565b600080600060608486031215614a0357614a02613a67565b5b6000614a1186828701613a88565b9350506020614a2286828701613a88565b9250506040614a3386828701613e39565b9150509250925092565b600081519050919050565b600082825260208201905092915050565b6000819050602082019050919050565b60038110614a7a57614a79613ec5565b5b50565b6000819050614a8b82614a69565b919050565b6000614a9b82614a7d565b9050919050565b614aab81614a90565b82525050565b604082016000820151614ac76000850182613ea7565b506020820151614ada6020850182613ea7565b50505050565b604082016000820151614af66000850182613ea7565b506020820151614b096020850182613ea7565b50505050565b614b1881614535565b82525050565b606082016000820151614b346000850182614b0f565b506020820151614b476020850182614b0f565b506040820151614b5a6040850182614b0f565b50505050565b604082016000820151614b766000850182613ea7565b506020820151614b896020850182613ea7565b50505050565b60006101c083016000830151614ba86000860182613ea7565b5060208301518482036020860152614bc082826140f5565b9150506040830151614bd56040860182613eb6565b506060830151614be86060860182614aa2565b506080830151614bfb6080860182613ea7565b5060a0830151614c0e60a0860182614ab1565b5060c0830151614c2160e0860182614ae0565b5060e0830151614c35610120860182614b1e565b50610100830151614c4a610180860182614b60565b508091505092915050565b6000614c618383614b8f565b905092915050565b6000602082019050919050565b6000614c8182614a3d565b614c8b8185614a48565b935083602082028501614c9d85614a59565b8060005b85811015614cd95784840389528151614cba8582614c55565b9450614cc583614c69565b925060208a01995050600181019050614ca1565b50829750879550505050505092915050565b60006020820190508181036000830152614d058184614c76565b905092915050565b60008060008060808587031215614d2757614d26613a67565b5b6000614d3587828801613a88565b9450506020614d4687828801613a88565b9350506040614d5787828801613a88565b9250506060614d6887828801613e39565b91505092959194509250565b600080600060608486031215614d8d57614d8c613a67565b5b6000614d9b86828701613a88565b9350506020614dac86828701613a88565b9250506040614dbd86828701613a88565b9150509250925092565b600081519050919050565b600082825260208201905092915050565b6000819050602082019050919050565b600060e083016000830151614e0b6000860182613ea7565b506020830151614e1e6020860182613ea7565b506040830151614e316040860182613eb6565b5060608301518482036060860152614e4982826140f5565b9150506080830151614e5e6080860182613ea7565b5060a0830151614e7160a0860182613ea7565b5060c0830151614e8460c0860182613ea7565b508091505092915050565b6000614e9b8383614df3565b905092915050565b6000602082019050919050565b6000614ebb82614dc7565b614ec58185614dd2565b935083602082028501614ed785614de3565b8060005b85811015614f135784840389528151614ef48582614e8f565b9450614eff83614ea3565b925060208a01995050600181019050614edb565b50829750879550505050505092915050565b60006020820190508181036000830152614f3f8184614eb0565b905092915050565b600082825260208201905092915050565b7f4f6e6c792074686520696e737572616e636520636f6d70616e792063616e207060008201527f6572666f726d207468697320616374696f6e0000000000000000000000000000602082015250565b6000614fb4603283614f47565b9150614fbf82614f58565b604082019050919050565b60006020820190508181036000830152614fe381614fa7565b9050919050565b7f436c61696d20616c726561647920736574746c65640000000000000000000000600082015250565b6000615020601583614f47565b915061502b82614fea565b602082019050919050565b6000602082019050818103600083015261504f81615013565b9050919050565b600060808201905061506b6000830187613a33565b6150786020830186613a33565b6150856040830185613a33565b6150926060830184613a33565b95945050505050565b7f4e487b7100000000000000000000000000000000000000000000000000000000600052601160045260246000fd5b60006150d582613a29565b91507fffffffffffffffffffffffffffffffffffffffffffffffffffffffffffffffff82036151075761510661509b565b5b600182019050919050565b7f4e487b7100000000000000000000000000000000000000000000000000000000600052602260045260246000fd5b6000600282049050600182168061515957607f821691505b60208210810361516c5761516b615112565b5b50919050565b60008190508160005260206000209050919050565b60006020601f8301049050919050565b600082821b905092915050565b6000600883026151d47fffffffffffffffffffffffffffffffffffffffffffffffffffffffffffffffff82615197565b6151de8683615197565b95508019841693508086168417925050509392505050565b6000819050919050565b600061521b61521661521184613a29565b6151f6565b613a29565b9050919050565b6000819050919050565b61523583615200565b61524961524182615222565b8484546151a4565b825550505050565b600090565b61525e615251565b61526981848461522c565b505050565b5b8181101561528d57615282600082615256565b60018101905061526f565b5050565b601f8211156152d2576152a381615172565b6152ac84615187565b810160208510156152bb578190505b6152cf6152c785615187565b83018261526e565b50505b505050565b600082821c905092915050565b60006152f5600019846008026152d7565b1980831691505092915050565b600061530e83836152e4565b9150826002028217905092915050565b615327826140af565b67ffffffffffffffff8111156153405761533f613ae0565b5b61534a8254615141565b615355828285615291565b600060209050601f8311600181146153885760008415615376578287015190505b6153808582615302565b8655506153e8565b601f19841661539686615172565b60005b828110156153be57848901518255600182019150602085019450602081019050615399565b868310156153db57848901516153d7601f8916826152e4565b8355505b6001600288020188555050505b505050505050565b600082825260208201905092915050565b600061540c826147d9565b61541681856153f0565b9350615421836147f5565b8060005b838110156154525781516154398882614805565b97506154448361481d565b925050600181019050615425565b5085935050505092915050565b60006040820190506154746000830185613a33565b81810360208301526154868184615401565b90509392505050565b7f496e76616c6964207061796d656e742074797065000000000000000000000000600082015250565b60006154c5601483614f47565b91506154d08261548f565b602082019050919050565b600060208201905081810360008301526154f4816154b8565b9050919050565b7f4e487b7100000000000000000000000000000000000000000000000000000000600052603260045260246000fd5b7f496e76616c69642070617469656e742049440000000000000000000000000000600082015250565b6000615560601283614f47565b915061556b8261552a565b602082019050919050565b6000602082019050818103600083015261558f81615553565b9050919050565b7f496e76616c69642062696c6c2049440000000000000000000000000000000000600082015250565b60006155cc600f83614f47565b91506155d782615596565b602082019050919050565b600060208201905081810360008301526155fb816155bf565b9050919050565b7f4f6e6c792074686520686f73706974616c2063616e20706572666f726d20746860008201527f697320616374696f6e0000000000000000000000000000000000000000000000602082015250565b600061565e602983614f47565b915061566982615602565b604082019050919050565b6000602082019050818103600083015261568d81615651565b9050919050565b600061569f82613a29565b91506156aa83613a29565b92508282019050808211156156c2576156c161509b565b5b92915050565b7f4e487b7100000000000000000000000000000000000000000000000000000000600052601260045260246000fd5b600061570282613a29565b915061570d83613a29565b92508261571d5761571c6156c8565b5b828204905092915050565b600060608201905061573d6000830186613a33565b61574a6020830185613a33565b6157576040830184613a33565b949350505050565b7f507265617574686f72697a6174696f6e206e6f7420617070726f766564000000600082015250565b6000615795601d83614f47565b91506157a08261575f565b602082019050919050565b600060208201905081810360008301526157c481615788565b9050919050565b7f506f6c69637920646f6573206e6f7420636f76657220636173686c657373207460008201527f726561746d656e74000000000000000000000000000000000000000000000000602082015250565b6000615827602883614f47565b9150615832826157cb565b604082019050919050565b600060208201905081810360008301526158568161581a565b9050919050565b6000615868826140af565b6158728185614f47565b93506158828185602086016140cb565b61588b81613acf565b840191505092915050565b60006040820190506158ab6000830185613a33565b81810360208301526158bd818461585d565b90509392505050565b6158cf81613e10565b82525050565b60006040820190506158ea6000830185613a33565b6158f760208301846158c6565b9392505050565b7f497420697320616c72656164792072656a656374656400000000000000000000600082015250565b6000615934601683614f47565b915061593f826158fe565b602082019050919050565b6000602082019050818103600083015261596381615927565b9050919050565b7f506c656173652053656c656374204f6e65205479706500000000000000000000600082015250565b60006159a0601683614f47565b91506159ab8261596a565b602082019050919050565b600060208201905081810360008301526159cf81615993565b9050919050565b7f507265617574686f72697a6174696f6e20616c72656164792070726f6365737360008201527f6564000000000000000000000000000000000000000000000000000000000000602082015250565b6000615a32602283614f47565b9150615a3d826159d6565b604082019050919050565b60006020820190508181036000830152615a6181615a25565b9050919050565b7f496e76616c696420686f73706974616c20494400000000000000000000000000600082015250565b6000615a9e601383614f47565b9150615aa982615a68565b602082019050919050565b60006020820190508181036000830152615acd81615a91565b9050919050565b7f4f6e6c79207468652070617469656e742063616e20706572666f726d2074686960008201527f7320616374696f6e000000000000000000000000000000000000000000000000602082015250565b6000615b30602883614f47565b9150615b3b82615ad4565b604082019050919050565b60006020820190508181036000830152615b5f81615b23565b9050919050565b7f496e737572616e636520436f6d70616e7920616c72656164792061737369676e60008201527f6564000000000000000000000000000000000000000000000000000000000000602082015250565b6000615bc2602283614f47565b9150615bcd82615b66565b604082019050919050565b60006020820190508181036000830152615bf181615bb5565b9050919050565b7f506f6c69637920646f6573206e6f7420636f766572207265696d62757273656d60008201527f656e7420636c61696d7300000000000000000000000000000000000000000000602082015250565b6000615c54602a83614f47565b9150615c5f82615bf8565b604082019050919050565b60006020820190508181036000830152615c8381615c47565b9050919050565b7f436c61696d20616d6f756e742063616e6e6f742065786365656420746865206260008201527f696c6c20616d6f756e7400000000000000000000000000000000000000000000602082015250565b6000615ce6602a83614f47565b9150615cf182615c8a565b604082019050919050565b60006020820190508181036000830152615d1581615cd9565b9050919050565b6000615d2782613a29565b9150615d3283613a29565b9250828202615d4081613a29565b91508282048414831517615d5757615d5661509b565b5b5092915050565b6000615d6982613a29565b9150615d7483613a29565b9250828203905081811115615d8c57615d8b61509b565b5b9291505056fea2646970667358221220d19458d3f0b0e5e3b552241f02a784a348aa9f1e9f5eac745cf87e07a58bd6db64736f6c63430008110033",
  "immutableReferences": {},
  "source": "// SPDX-License-Identifier: MIT\r\npragma solidity ^0.8.0;\r\n// pragma optimizer enabled;\r\npragma experimental ABIEncoderV2;\r\n\r\n\r\nimport {Cashless} from \"./Cashless.sol\";\r\nimport {Reimbursement} from \"./Reimbursement.sol\";\r\n\r\ncontract PatientManagementSystem is Cashless, Reimbursement{\r\n    enum PaymentType { CASHLESS, REIMBURSEMENT, SELFPAY }\r\n\r\n    function calculateFinalAmount(\r\n        uint256 _patientId,\r\n        uint256 _billId,\r\n        uint256 _policyId,\r\n        uint256 _preauthorizationId,\r\n        PaymentType _paymentType\r\n    ) public view returns (uint256) {\r\n        if (_paymentType == PaymentType.CASHLESS) {\r\n            return calculateFinalClaimAmount(_patientId, _billId, _policyId, _preauthorizationId);\r\n        } else if (_paymentType == PaymentType.REIMBURSEMENT) {\r\n            return calculateFinalClaimAmountReimbursement(_patientId, _billId, _policyId);\r\n        }  else {\r\n            revert(\"Invalid payment type\");\r\n        }\r\n    }\r\n\r\n    function calculateFinalClaimAmount(uint256 _patientId, uint256 _billId, uint256 _policyId,uint256 _preauthorizationId) \r\n    public cashlessTreatment(_preauthorizationId) view returns (uint256) {\r\n        MedicalBill storage bill = medicalBills[_patientId][_billId];\r\n        uint256 originalBillAmount = bill.amount;\r\n        uint256 claimableAmount=0;\r\n\r\n        uint256 copayment = calculateCopayment(_policyId, originalBillAmount);\r\n        claimableAmount +=  copayment;\r\n\r\n        uint256 deductible = calculateDeductible(_policyId, originalBillAmount);\r\n        if (originalBillAmount > deductible) {\r\n            claimableAmount += deductible;\r\n        } else {\r\n            return 0; \r\n        }\r\n\r\n        string[] memory nonCoveredExpenses = new string[](3);\r\n        nonCoveredExpenses[0] = \"facelift\";\r\n        nonCoveredExpenses[1] = \"hairTransplant\";\r\n        nonCoveredExpenses[2] = \"alternativeTherapy\";\r\n\r\n        for (uint256 i = 0; i < nonCoveredExpenses.length; i++) {\r\n            if (isNonCoveredExpense(_policyId, nonCoveredExpenses[i])) {\r\n                return 0; \r\n            }\r\n        }\r\n\r\n        (bool sublimitsValid, uint256 sublimitsOff) = checkSublimits(_policyId, 0,0);\r\n        if(sublimitsValid){\r\n            claimableAmount += sublimitsOff; \r\n        } else {\r\n            return 0;\r\n        }\r\n\r\n        return claimableAmount;\r\n    }        \r\n\r\n \r\n    function calculateFinalClaimAmountReimbursement(uint256 _patientId, uint256 _billId, uint256 _policyId) \r\n    public view returns (uint256) {\r\n        MedicalBill storage bill = medicalBills[_patientId][_billId];\r\n        uint256 originalBillAmount = bill.amount;\r\n        uint256 claimableAmount=0;\r\n\r\n        uint256 copayment = calculateCopayment(_policyId, originalBillAmount);\r\n        claimableAmount +=  copayment;\r\n\r\n        uint256 deductible = calculateDeductible(_policyId, originalBillAmount);\r\n        if (originalBillAmount > deductible) {\r\n            claimableAmount += deductible;\r\n        } else {\r\n            return 0; \r\n        }\r\n\r\n        string[] memory nonCoveredExpenses = new string[](3);\r\n        nonCoveredExpenses[0] = \"facelift\";\r\n        nonCoveredExpenses[1] = \"hairTransplant\";\r\n        nonCoveredExpenses[2] = \"alternativeTherapy\";\r\n\r\n        for (uint256 i = 0; i < nonCoveredExpenses.length; i++) {\r\n            if (isNonCoveredExpense(_policyId, nonCoveredExpenses[i])) {\r\n                return 0; \r\n            }\r\n        }\r\n\r\n        (bool sublimitsValid, uint256 sublimitsOff) = checkSublimits(_policyId, 0,0);\r\n        if(sublimitsValid){\r\n            claimableAmount += sublimitsOff; \r\n        } else {\r\n            return 0;\r\n        }\r\n\r\n        return claimableAmount;\r\n    }\r\n\r\n}",
  "sourcePath": "D:\\blockchain\\Patient-Management-System-Decentralized-App\\contracts\\Patient_Management_System.sol",
  "compiler": {
    "name": "solc",
    "version": "0.8.17+commit.8df45f5f.Emscripten.clang"
  },
  "schemaVersion": "3.4.16",
  "updatedAt": "2024-05-20T15:34:58.741Z",
  "networkType": "ethereum",
  "devdoc": {
    "kind": "dev",
    "methods": {},
    "version": 1
  },
  "userdoc": {
    "kind": "user",
    "methods": {},
    "version": 1
  }
}